{
  "_format": "hh-sol-artifact-1",
  "contractName": "CryptoScoutDex",
  "sourceName": "contracts/CryptoScoutDex.sol",
  "abi": [
    {
      "inputs": [],
      "stateMutability": "nonpayable",
      "type": "constructor"
    },
    {
      "inputs": [],
      "name": "_historyIndex",
      "outputs": [
        {
          "internalType": "uint256",
          "name": "",
          "type": "uint256"
        }
      ],
      "stateMutability": "view",
      "type": "function"
    },
    {
      "inputs": [],
      "name": "getAllHistory",
      "outputs": [
        {
          "components": [
            {
              "internalType": "uint256",
              "name": "historyId",
              "type": "uint256"
            },
            {
              "internalType": "string",
              "name": "tokenA",
              "type": "string"
            },
            {
              "internalType": "string",
              "name": "tokenB",
              "type": "string"
            },
            {
              "internalType": "uint256",
              "name": "inputValue",
              "type": "uint256"
            },
            {
              "internalType": "uint256",
              "name": "outputValue",
              "type": "uint256"
            },
            {
              "internalType": "address",
              "name": "userAddress",
              "type": "address"
            }
          ],
          "internalType": "struct CryptoScoutDex.History[]",
          "name": "",
          "type": "tuple[]"
        }
      ],
      "stateMutability": "view",
      "type": "function"
    },
    {
      "inputs": [
        {
          "internalType": "string",
          "name": "tokenName",
          "type": "string"
        },
        {
          "internalType": "address",
          "name": "_address",
          "type": "address"
        }
      ],
      "name": "getBalance",
      "outputs": [
        {
          "internalType": "uint256",
          "name": "",
          "type": "uint256"
        }
      ],
      "stateMutability": "view",
      "type": "function"
    },
    {
      "inputs": [],
      "name": "getEthBalance",
      "outputs": [
        {
          "internalType": "uint256",
          "name": "",
          "type": "uint256"
        }
      ],
      "stateMutability": "view",
      "type": "function"
    },
    {
      "inputs": [
        {
          "internalType": "string",
          "name": "tokenName",
          "type": "string"
        }
      ],
      "name": "getName",
      "outputs": [
        {
          "internalType": "string",
          "name": "",
          "type": "string"
        }
      ],
      "stateMutability": "view",
      "type": "function"
    },
    {
      "inputs": [
        {
          "internalType": "string",
          "name": "tokenName",
          "type": "string"
        }
      ],
      "name": "getTokenAddress",
      "outputs": [
        {
          "internalType": "address",
          "name": "",
          "type": "address"
        }
      ],
      "stateMutability": "view",
      "type": "function"
    },
    {
      "inputs": [
        {
          "internalType": "string",
          "name": "tokenName",
          "type": "string"
        }
      ],
      "name": "getTotalSupply",
      "outputs": [
        {
          "internalType": "uint256",
          "name": "",
          "type": "uint256"
        }
      ],
      "stateMutability": "view",
      "type": "function"
    },
    {
      "inputs": [
        {
          "internalType": "string",
          "name": "tokenName",
          "type": "string"
        },
        {
          "internalType": "uint256",
          "name": "srcAmount",
          "type": "uint256"
        },
        {
          "internalType": "uint256",
          "name": "destAmount",
          "type": "uint256"
        }
      ],
      "name": "swapEthToToken",
      "outputs": [],
      "stateMutability": "nonpayable",
      "type": "function"
    },
    {
      "inputs": [
        {
          "internalType": "string",
          "name": "tokenName",
          "type": "string"
        },
        {
          "internalType": "uint256",
          "name": "_srcAmount",
          "type": "uint256"
        },
        {
          "internalType": "uint256",
          "name": "_destAmount",
          "type": "uint256"
        }
      ],
      "name": "swapTokenToEth",
      "outputs": [],
      "stateMutability": "nonpayable",
      "type": "function"
    },
    {
      "inputs": [
        {
          "internalType": "string",
          "name": "srcTokenName",
          "type": "string"
        },
        {
          "internalType": "string",
          "name": "destTokenName",
          "type": "string"
        },
        {
          "internalType": "uint256",
          "name": "srcAmount",
          "type": "uint256"
        },
        {
          "internalType": "uint256",
          "name": "destAmount",
          "type": "uint256"
        }
      ],
      "name": "swapTokenToToken",
      "outputs": [],
      "stateMutability": "nonpayable",
      "type": "function"
    },
    {
      "inputs": [
        {
          "internalType": "string",
          "name": "",
          "type": "string"
        }
      ],
      "name": "tokenInstanceMap",
      "outputs": [
        {
          "internalType": "contract ERC20",
          "name": "",
          "type": "address"
        }
      ],
      "stateMutability": "view",
      "type": "function"
    },
    {
      "inputs": [
        {
          "internalType": "uint256",
          "name": "",
          "type": "uint256"
        }
      ],
      "name": "tokens",
      "outputs": [
        {
          "internalType": "string",
          "name": "",
          "type": "string"
        }
      ],
      "stateMutability": "view",
      "type": "function"
    }
  ],
  "bytecode": "0x6080604052655af3107a40006000556040518061010001604052806040518060400160405280600881526020017f457468657265756d00000000000000000000000000000000000000000000000081525081526020016040518060400160405280600b81526020017f546574686572205553447400000000000000000000000000000000000000000081525081526020016040518060400160405280600481526020017f555344430000000000000000000000000000000000000000000000000000000081525081526020016040518060400160405280600981526020017f536869626120496e75000000000000000000000000000000000000000000000081525081526020016040518060400160405280600381526020017f424e42000000000000000000000000000000000000000000000000000000000081525081526020016040518060400160405280600481526020017f54524f4e0000000000000000000000000000000000000000000000000000000081525081526020016040518060400160405280600781526020017f556e69737761700000000000000000000000000000000000000000000000000081525081526020016040518060400160405280600781526020017f506f6c79676f6e00000000000000000000000000000000000000000000000000815250815250600190600862000202929190620003aa565b503480156200021057600080fd5b5060005b600180549050811015620003a3576000600182815481106200025f577f4e487b7100000000000000000000000000000000000000000000000000000000600052603260045260246000fd5b9060005260206000200160018381548110620002a4577f4e487b7100000000000000000000000000000000000000000000000000000000600052603260045260246000fd5b90600052602060002001604051620002bc9062000411565b620002c99291906200066d565b604051809103906000f080158015620002e6573d6000803e3d6000fd5b5090508060026001848154811062000327577f4e487b7100000000000000000000000000000000000000000000000000000000600052603260045260246000fd5b9060005260206000200160405162000340919062000654565b908152602001604051809103902060006101000a81548173ffffffffffffffffffffffffffffffffffffffff021916908373ffffffffffffffffffffffffffffffffffffffff1602179055505080806200039a9062000719565b91505062000214565b50620007c5565b828054828255906000526020600020908101928215620003fe579160200282015b82811115620003fd578251829080519060200190620003ec9291906200041f565b5091602001919060010190620003cb565b5b5090506200040d9190620004b0565b5090565b61180f80620021ef83390190565b8280546200042d90620006e3565b90600052602060002090601f0160209004810192826200045157600085556200049d565b82601f106200046c57805160ff19168380011785556200049d565b828001600101855582156200049d579182015b828111156200049c5782518255916020019190600101906200047f565b5b509050620004ac9190620004d8565b5090565b5b80821115620004d45760008181620004ca9190620004f7565b50600101620004b1565b5090565b5b80821115620004f3576000816000905550600101620004d9565b5090565b5080546200050590620006e3565b6000825580601f106200051957506200053a565b601f016020900490600052602060002090810190620005399190620004d8565b5b50565b600081546200054c81620006e3565b620005588186620006bd565b945060018216600081146200057657600181146200058957620005c0565b60ff1983168652602086019350620005c0565b6200059485620006a8565b60005b83811015620005b85781548189015260018201915060208101905062000597565b808801955050505b50505092915050565b60008154620005d881620006e3565b620005e48186620006ce565b9450600182166000811462000602576001811462000614576200064b565b60ff198316865281860193506200064b565b6200061f85620006a8565b60005b83811015620006435781548189015260018201915060208101905062000622565b838801955050505b50505092915050565b6000620006628284620005c9565b915081905092915050565b600060408201905081810360008301526200068981856200053d565b905081810360208301526200069f81846200053d565b90509392505050565b60008190508160005260206000209050919050565b600082825260208201905092915050565b600081905092915050565b6000819050919050565b60006002820490506001821680620006fc57607f821691505b6020821081141562000713576200071262000796565b5b50919050565b60006200072682620006d9565b91507fffffffffffffffffffffffffffffffffffffffffffffffffffffffffffffffff8214156200075c576200075b62000767565b5b600182019050919050565b7f4e487b7100000000000000000000000000000000000000000000000000000000600052601160045260246000fd5b7f4e487b7100000000000000000000000000000000000000000000000000000000600052602260045260246000fd5b611a1a80620007d56000396000f3fe608060405234801561001057600080fd5b50600436106100b45760003560e01c80636932cf81116100715780636932cf811461018d57806370ed0ada146101bd57806389f4b317146101db5780639a017f3f1461020b578063a93325ed14610227578063c409123614610257576100b4565b806319b3c12d146100b957806339c5891a146100d75780633c5024bb146100f55780634f64b2be146101115780635463109e146101415780635b0bb1ba14610171575b600080fd5b6100c1610287565b6040516100ce9190611635565b60405180910390f35b6100df61028d565b6040516100ec91906115b6565b60405180910390f35b61010f600480360381019061010a9190611224565b61055e565b005b61012b6004803603810190610126919061128b565b610736565b60405161013891906115f3565b60405180910390f35b61015b600480360381019061015691906110bb565b6107e2565b6040516101689190611635565b60405180910390f35b61018b60048036038101906101869190611191565b6108a7565b005b6101a760048036038101906101a291906110bb565b610a63565b6040516101b491906115f3565b60405180910390f35b6101c5610b2d565b6040516101d29190611635565b60405180910390f35b6101f560048036038101906101f0919061113d565b610b35565b6040516102029190611635565b60405180910390f35b61022560048036038101906102209190611224565b610c06565b005b610241600480360381019061023c91906110bb565b610d20565b60405161024e91906115d8565b60405180910390f35b610271600480360381019061026c91906110bb565b610d69565b60405161027e919061153b565b60405180910390f35b60035481565b6060600060035490506000808267ffffffffffffffff8111156102d9577f4e487b7100000000000000000000000000000000000000000000000000000000600052604160045260246000fd5b60405190808252806020026020018201604052801561031257816020015b6102ff610e7f565b8152602001906001900390816102f75790505b50905060005b8381101561055457600060018261032f9190611722565b90506000600460008381526020019081526020016000209050806040518060c00160405290816000820154815260200160018201805461036e90611857565b80601f016020809104026020016040519081016040528092919081815260200182805461039a90611857565b80156103e75780601f106103bc576101008083540402835291602001916103e7565b820191906000526020600020905b8154815290600101906020018083116103ca57829003601f168201915b5050505050815260200160028201805461040090611857565b80601f016020809104026020016040519081016040528092919081815260200182805461042c90611857565b80156104795780601f1061044e57610100808354040283529160200191610479565b820191906000526020600020905b81548152906001019060200180831161045c57829003601f168201915b5050505050815260200160038201548152602001600482015481526020016005820160009054906101000a900473ffffffffffffffffffffffffffffffffffffffff1673ffffffffffffffffffffffffffffffffffffffff1673ffffffffffffffffffffffffffffffffffffffff1681525050848681518110610525577f4e487b7100000000000000000000000000000000000000000000000000000000600052603260045260246000fd5b602002602001018190525060018561053d9190611722565b94505050808061054c90611889565b915050610318565b5080935050505090565b6000670de0b6b3a7640000836105749190611778565b90506000670de0b6b3a76400008361058c9190611778565b9050804710156105d1576040517f08c379a00000000000000000000000000000000000000000000000000000000081526004016105c890611615565b60405180910390fd5b3373ffffffffffffffffffffffffffffffffffffffff166108fc829081150290604051600060405180830381858888f19350505050158015610617573d6000803e3d6000fd5b506002856040516106289190611524565b908152602001604051809103902060009054906101000a900473ffffffffffffffffffffffffffffffffffffffff1673ffffffffffffffffffffffffffffffffffffffff166323b872dd3330876040518463ffffffff1660e01b815260040161069393929190611556565b602060405180830381600087803b1580156106ad57600080fd5b505af11580156106c1573d6000803e3d6000fd5b505050506040513d601f19601f820116820180604052508101906106e59190611092565b6106ee57600080fd5b61072f856040518060400160405280600581526020017f45746865720000000000000000000000000000000000000000000000000000008152508484610db1565b5050505050565b6001818154811061074657600080fd5b90600052602060002001600091509050805461076190611857565b80601f016020809104026020016040519081016040528092919081815260200182805461078d90611857565b80156107da5780601f106107af576101008083540402835291602001916107da565b820191906000526020600020905b8154815290600101906020018083116107bd57829003601f168201915b505050505081565b60006002826040516107f49190611524565b908152602001604051809103902060009054906101000a900473ffffffffffffffffffffffffffffffffffffffff1673ffffffffffffffffffffffffffffffffffffffff166318160ddd6040518163ffffffff1660e01b815260040160206040518083038186803b15801561086857600080fd5b505afa15801561087c573d6000803e3d6000fd5b505050506040513d601f19601f820116820180604052508101906108a091906112b4565b9050919050565b6002846040516108b79190611524565b908152602001604051809103902060009054906101000a900473ffffffffffffffffffffffffffffffffffffffff1673ffffffffffffffffffffffffffffffffffffffff166323b872dd3330856040518463ffffffff1660e01b815260040161092293929190611556565b602060405180830381600087803b15801561093c57600080fd5b505af1158015610950573d6000803e3d6000fd5b505050506040513d601f19601f820116820180604052508101906109749190611092565b61097d57600080fd5b60028360405161098d9190611524565b908152602001604051809103902060009054906101000a900473ffffffffffffffffffffffffffffffffffffffff1673ffffffffffffffffffffffffffffffffffffffff1663a9059cbb33836040518363ffffffff1660e01b81526004016109f692919061158d565b602060405180830381600087803b158015610a1057600080fd5b505af1158015610a24573d6000803e3d6000fd5b505050506040513d601f19601f82011682018060405250810190610a489190611092565b610a5157600080fd5b610a5d84848484610db1565b50505050565b6060600282604051610a759190611524565b908152602001604051809103902060009054906101000a900473ffffffffffffffffffffffffffffffffffffffff1673ffffffffffffffffffffffffffffffffffffffff166306fdde036040518163ffffffff1660e01b815260040160006040518083038186803b158015610ae957600080fd5b505afa158015610afd573d6000803e3d6000fd5b505050506040513d6000823e3d601f19601f82011682018060405250810190610b2691906110fc565b9050919050565b600047905090565b6000600283604051610b479190611524565b908152602001604051809103902060009054906101000a900473ffffffffffffffffffffffffffffffffffffffff1673ffffffffffffffffffffffffffffffffffffffff166370a08231836040518263ffffffff1660e01b8152600401610bae919061153b565b60206040518083038186803b158015610bc657600080fd5b505afa158015610bda573d6000803e3d6000fd5b505050506040513d601f19601f82011682018060405250810190610bfe91906112b4565b905092915050565b600283604051610c169190611524565b908152602001604051809103902060009054906101000a900473ffffffffffffffffffffffffffffffffffffffff1673ffffffffffffffffffffffffffffffffffffffff1663a9059cbb33836040518363ffffffff1660e01b8152600401610c7f92919061158d565b602060405180830381600087803b158015610c9957600080fd5b505af1158015610cad573d6000803e3d6000fd5b505050506040513d601f19601f82011682018060405250810190610cd19190611092565b610cda57600080fd5b610d1b836040518060400160405280600581526020017f45746865720000000000000000000000000000000000000000000000000000008152508484610db1565b505050565b6002818051602081018201805184825260208301602085012081835280955050505050506000915054906101000a900473ffffffffffffffffffffffffffffffffffffffff1681565b6000600282604051610d7b9190611524565b908152602001604051809103902060009054906101000a900473ffffffffffffffffffffffffffffffffffffffff169050919050565b60036000815480929190610dc490611889565b9190505550600060035490506000600460008381526020019081526020016000209050818160000181905550338160050160006101000a81548173ffffffffffffffffffffffffffffffffffffffff021916908373ffffffffffffffffffffffffffffffffffffffff16021790555085816001019080519060200190610e4b929190610ecb565b5084816002019080519060200190610e64929190610ecb565b50838160030181905550828160040181905550505050505050565b6040518060c001604052806000815260200160608152602001606081526020016000815260200160008152602001600073ffffffffffffffffffffffffffffffffffffffff1681525090565b828054610ed790611857565b90600052602060002090601f016020900481019282610ef95760008555610f40565b82601f10610f1257805160ff1916838001178555610f40565b82800160010185558215610f40579182015b82811115610f3f578251825591602001919060010190610f24565b5b509050610f4d9190610f51565b5090565b5b80821115610f6a576000816000905550600101610f52565b5090565b6000610f81610f7c84611681565b611650565b905082815260208101848484011115610f9957600080fd5b610fa4848285611815565b509392505050565b6000610fbf610fba84611681565b611650565b905082815260208101848484011115610fd757600080fd5b610fe2848285611824565b509392505050565b600081359050610ff98161199f565b92915050565b60008151905061100e816119b6565b92915050565b600082601f83011261102557600080fd5b8135611035848260208601610f6e565b91505092915050565b600082601f83011261104f57600080fd5b815161105f848260208601610fac565b91505092915050565b600081359050611077816119cd565b92915050565b60008151905061108c816119cd565b92915050565b6000602082840312156110a457600080fd5b60006110b284828501610fff565b91505092915050565b6000602082840312156110cd57600080fd5b600082013567ffffffffffffffff8111156110e757600080fd5b6110f384828501611014565b91505092915050565b60006020828403121561110e57600080fd5b600082015167ffffffffffffffff81111561112857600080fd5b6111348482850161103e565b91505092915050565b6000806040838503121561115057600080fd5b600083013567ffffffffffffffff81111561116a57600080fd5b61117685828601611014565b925050602061118785828601610fea565b9150509250929050565b600080600080608085870312156111a757600080fd5b600085013567ffffffffffffffff8111156111c157600080fd5b6111cd87828801611014565b945050602085013567ffffffffffffffff8111156111ea57600080fd5b6111f687828801611014565b935050604061120787828801611068565b925050606061121887828801611068565b91505092959194509250565b60008060006060848603121561123957600080fd5b600084013567ffffffffffffffff81111561125357600080fd5b61125f86828701611014565b935050602061127086828701611068565b925050604061128186828701611068565b9150509250925092565b60006020828403121561129d57600080fd5b60006112ab84828501611068565b91505092915050565b6000602082840312156112c657600080fd5b60006112d48482850161107d565b91505092915050565b60006112e98383611476565b905092915050565b6112fa816117a9565b82525050565b611309816117a9565b82525050565b600061131a826116c1565b61132481856116e4565b935083602082028501611336856116b1565b8060005b85811015611372578484038952815161135385826112dd565b945061135e836116d7565b925060208a0199505060018101905061133a565b50829750879550505050505092915050565b61138d816117f1565b82525050565b600061139e826116cc565b6113a881856116f5565b93506113b8818560208601611824565b6113c18161198e565b840191505092915050565b60006113d7826116cc565b6113e18185611706565b93506113f1818560208601611824565b6113fa8161198e565b840191505092915050565b6000611410826116cc565b61141a8185611717565b935061142a818560208601611824565b80840191505092915050565b6000611443601e83611706565b91507f4465782069732072756e6e696e67206c6f77206f6e2062616c616e63652e00006000830152602082019050919050565b600060c08301600083015161148e6000860182611506565b50602083015184820360208601526114a68282611393565b915050604083015184820360408601526114c08282611393565b91505060608301516114d56060860182611506565b5060808301516114e86080860182611506565b5060a08301516114fb60a08601826112f1565b508091505092915050565b61150f816117e7565b82525050565b61151e816117e7565b82525050565b60006115308284611405565b915081905092915050565b60006020820190506115506000830184611300565b92915050565b600060608201905061156b6000830186611300565b6115786020830185611300565b6115856040830184611515565b949350505050565b60006040820190506115a26000830185611300565b6115af6020830184611515565b9392505050565b600060208201905081810360008301526115d0818461130f565b905092915050565b60006020820190506115ed6000830184611384565b92915050565b6000602082019050818103600083015261160d81846113cc565b905092915050565b6000602082019050818103600083015261162e81611436565b9050919050565b600060208201905061164a6000830184611515565b92915050565b6000604051905081810181811067ffffffffffffffff821117156116775761167661195f565b5b8060405250919050565b600067ffffffffffffffff82111561169c5761169b61195f565b5b601f19601f8301169050602081019050919050565b6000819050602082019050919050565b600081519050919050565b600081519050919050565b6000602082019050919050565b600082825260208201905092915050565b600082825260208201905092915050565b600082825260208201905092915050565b600081905092915050565b600061172d826117e7565b9150611738836117e7565b9250827fffffffffffffffffffffffffffffffffffffffffffffffffffffffffffffffff0382111561176d5761176c6118d2565b5b828201905092915050565b6000611783826117e7565b915061178e836117e7565b92508261179e5761179d611901565b5b828204905092915050565b60006117b4826117c7565b9050919050565b60008115159050919050565b600073ffffffffffffffffffffffffffffffffffffffff82169050919050565b6000819050919050565b60006117fc82611803565b9050919050565b600061180e826117c7565b9050919050565b82818337600083830152505050565b60005b83811015611842578082015181840152602081019050611827565b83811115611851576000848401525b50505050565b6000600282049050600182168061186f57607f821691505b6020821081141561188357611882611930565b5b50919050565b6000611894826117e7565b91507fffffffffffffffffffffffffffffffffffffffffffffffffffffffffffffffff8214156118c7576118c66118d2565b5b600182019050919050565b7f4e487b7100000000000000000000000000000000000000000000000000000000600052601160045260246000fd5b7f4e487b7100000000000000000000000000000000000000000000000000000000600052601260045260246000fd5b7f4e487b7100000000000000000000000000000000000000000000000000000000600052602260045260246000fd5b7f4e487b7100000000000000000000000000000000000000000000000000000000600052604160045260246000fd5b6000601f19601f8301169050919050565b6119a8816117a9565b81146119b357600080fd5b50565b6119bf816117bb565b81146119ca57600080fd5b50565b6119d6816117e7565b81146119e157600080fd5b5056fea264697066735822122058defca77d6270a3a57b7a4f52e8308095378e7b8161a4a3487b52bf866a984a64736f6c6343000800003360806040523480156200001157600080fd5b506040516200180f3803806200180f83398181016040528101906200003791906200032c565b81818160039080519060200190620000519291906200020a565b5080600490805190602001906200006a9291906200020a565b5050506200008a336a084595161401484a0000006200009260201b60201c565b505062000609565b600073ffffffffffffffffffffffffffffffffffffffff168273ffffffffffffffffffffffffffffffffffffffff16141562000105576040517f08c379a0000000000000000000000000000000000000000000000000000000008152600401620000fc90620003f2565b60405180910390fd5b62000119600083836200020060201b60201c565b80600260008282546200012d9190620004a9565b92505081905550806000808473ffffffffffffffffffffffffffffffffffffffff1673ffffffffffffffffffffffffffffffffffffffff168152602001908152602001600020600082825401925050819055508173ffffffffffffffffffffffffffffffffffffffff16600073ffffffffffffffffffffffffffffffffffffffff167fddf252ad1be2c89b69c2b068fc378daa952ba7f163c4a11628f55a4df523b3ef83604051620001e0919062000414565b60405180910390a3620001fc600083836200020560201b60201c565b5050565b505050565b505050565b828054620002189062000546565b90600052602060002090601f0160209004810192826200023c576000855562000288565b82601f106200025757805160ff191683800117855562000288565b8280016001018555821562000288579182015b82811115620002875782518255916020019190600101906200026a565b5b5090506200029791906200029b565b5090565b5b80821115620002b65760008160009055506001016200029c565b5090565b6000620002d1620002cb8462000465565b62000431565b905082815260208101848484011115620002ea57600080fd5b620002f784828562000510565b509392505050565b600082601f8301126200031157600080fd5b815162000323848260208601620002ba565b91505092915050565b600080604083850312156200034057600080fd5b600083015167ffffffffffffffff8111156200035b57600080fd5b6200036985828601620002ff565b925050602083015167ffffffffffffffff8111156200038757600080fd5b6200039585828601620002ff565b9150509250929050565b6000620003ae601f8362000498565b91507f45524332303a206d696e7420746f20746865207a65726f2061646472657373006000830152602082019050919050565b620003ec8162000506565b82525050565b600060208201905081810360008301526200040d816200039f565b9050919050565b60006020820190506200042b6000830184620003e1565b92915050565b6000604051905081810181811067ffffffffffffffff821117156200045b576200045a620005da565b5b8060405250919050565b600067ffffffffffffffff821115620004835762000482620005da565b5b601f19601f8301169050602081019050919050565b600082825260208201905092915050565b6000620004b68262000506565b9150620004c38362000506565b9250827fffffffffffffffffffffffffffffffffffffffffffffffffffffffffffffffff03821115620004fb57620004fa6200057c565b5b828201905092915050565b6000819050919050565b60005b838110156200053057808201518184015260208101905062000513565b8381111562000540576000848401525b50505050565b600060028204905060018216806200055f57607f821691505b60208210811415620005765762000575620005ab565b5b50919050565b7f4e487b7100000000000000000000000000000000000000000000000000000000600052601160045260246000fd5b7f4e487b7100000000000000000000000000000000000000000000000000000000600052602260045260246000fd5b7f4e487b7100000000000000000000000000000000000000000000000000000000600052604160045260246000fd5b6111f680620006196000396000f3fe608060405234801561001057600080fd5b50600436106100a95760003560e01c80633950935111610071578063395093511461016857806370a082311461019857806395d89b41146101c8578063a457c2d7146101e6578063a9059cbb14610216578063dd62ed3e14610246576100a9565b806306fdde03146100ae578063095ea7b3146100cc57806318160ddd146100fc57806323b872dd1461011a578063313ce5671461014a575b600080fd5b6100b6610276565b6040516100c39190610ebf565b60405180910390f35b6100e660048036038101906100e19190610b5e565b610308565b6040516100f39190610ea4565b60405180910390f35b61010461032b565b6040516101119190610fc1565b60405180910390f35b610134600480360381019061012f9190610b0f565b610335565b6040516101419190610ea4565b60405180910390f35b610152610364565b60405161015f9190610fdc565b60405180910390f35b610182600480360381019061017d9190610b5e565b61036d565b60405161018f9190610ea4565b60405180910390f35b6101b260048036038101906101ad9190610aaa565b6103a4565b6040516101bf9190610fc1565b60405180910390f35b6101d06103ec565b6040516101dd9190610ebf565b60405180910390f35b61020060048036038101906101fb9190610b5e565b61047e565b60405161020d9190610ea4565b60405180910390f35b610230600480360381019061022b9190610b5e565b6104f5565b60405161023d9190610ea4565b60405180910390f35b610260600480360381019061025b9190610ad3565b610518565b60405161026d9190610fc1565b60405180910390f35b606060038054610285906110f1565b80601f01602080910402602001604051908101604052809291908181526020018280546102b1906110f1565b80156102fe5780601f106102d3576101008083540402835291602001916102fe565b820191906000526020600020905b8154815290600101906020018083116102e157829003601f168201915b5050505050905090565b60008061031361059f565b90506103208185856105a7565b600191505092915050565b6000600254905090565b60008061034061059f565b905061034d858285610772565b6103588585856107fe565b60019150509392505050565b60006012905090565b60008061037861059f565b905061039981858561038a8589610518565b6103949190611013565b6105a7565b600191505092915050565b60008060008373ffffffffffffffffffffffffffffffffffffffff1673ffffffffffffffffffffffffffffffffffffffff168152602001908152602001600020549050919050565b6060600480546103fb906110f1565b80601f0160208091040260200160405190810160405280929190818152602001828054610427906110f1565b80156104745780601f1061044957610100808354040283529160200191610474565b820191906000526020600020905b81548152906001019060200180831161045757829003601f168201915b5050505050905090565b60008061048961059f565b905060006104978286610518565b9050838110156104dc576040517f08c379a00000000000000000000000000000000000000000000000000000000081526004016104d390610fa1565b60405180910390fd5b6104e982868684036105a7565b60019250505092915050565b60008061050061059f565b905061050d8185856107fe565b600191505092915050565b6000600160008473ffffffffffffffffffffffffffffffffffffffff1673ffffffffffffffffffffffffffffffffffffffff16815260200190815260200160002060008373ffffffffffffffffffffffffffffffffffffffff1673ffffffffffffffffffffffffffffffffffffffff16815260200190815260200160002054905092915050565b600033905090565b600073ffffffffffffffffffffffffffffffffffffffff168373ffffffffffffffffffffffffffffffffffffffff161415610617576040517f08c379a000000000000000000000000000000000000000000000000000000000815260040161060e90610f81565b60405180910390fd5b600073ffffffffffffffffffffffffffffffffffffffff168273ffffffffffffffffffffffffffffffffffffffff161415610687576040517f08c379a000000000000000000000000000000000000000000000000000000000815260040161067e90610f01565b60405180910390fd5b80600160008573ffffffffffffffffffffffffffffffffffffffff1673ffffffffffffffffffffffffffffffffffffffff16815260200190815260200160002060008473ffffffffffffffffffffffffffffffffffffffff1673ffffffffffffffffffffffffffffffffffffffff168152602001908152602001600020819055508173ffffffffffffffffffffffffffffffffffffffff168373ffffffffffffffffffffffffffffffffffffffff167f8c5be1e5ebec7d5bd14f71427d1e84f3dd0314c0f7b2291e5b200ac8c7c3b925836040516107659190610fc1565b60405180910390a3505050565b600061077e8484610518565b90507fffffffffffffffffffffffffffffffffffffffffffffffffffffffffffffffff81146107f857818110156107ea576040517f08c379a00000000000000000000000000000000000000000000000000000000081526004016107e190610f21565b60405180910390fd5b6107f784848484036105a7565b5b50505050565b600073ffffffffffffffffffffffffffffffffffffffff168373ffffffffffffffffffffffffffffffffffffffff16141561086e576040517f08c379a000000000000000000000000000000000000000000000000000000000815260040161086590610f61565b60405180910390fd5b600073ffffffffffffffffffffffffffffffffffffffff168273ffffffffffffffffffffffffffffffffffffffff1614156108de576040517f08c379a00000000000000000000000000000000000000000000000000000000081526004016108d590610ee1565b60405180910390fd5b6108e9838383610a76565b60008060008573ffffffffffffffffffffffffffffffffffffffff1673ffffffffffffffffffffffffffffffffffffffff1681526020019081526020016000205490508181101561096f576040517f08c379a000000000000000000000000000000000000000000000000000000000815260040161096690610f41565b60405180910390fd5b8181036000808673ffffffffffffffffffffffffffffffffffffffff1673ffffffffffffffffffffffffffffffffffffffff16815260200190815260200160002081905550816000808573ffffffffffffffffffffffffffffffffffffffff1673ffffffffffffffffffffffffffffffffffffffff168152602001908152602001600020600082825401925050819055508273ffffffffffffffffffffffffffffffffffffffff168473ffffffffffffffffffffffffffffffffffffffff167fddf252ad1be2c89b69c2b068fc378daa952ba7f163c4a11628f55a4df523b3ef84604051610a5d9190610fc1565b60405180910390a3610a70848484610a7b565b50505050565b505050565b505050565b600081359050610a8f81611192565b92915050565b600081359050610aa4816111a9565b92915050565b600060208284031215610abc57600080fd5b6000610aca84828501610a80565b91505092915050565b60008060408385031215610ae657600080fd5b6000610af485828601610a80565b9250506020610b0585828601610a80565b9150509250929050565b600080600060608486031215610b2457600080fd5b6000610b3286828701610a80565b9350506020610b4386828701610a80565b9250506040610b5486828701610a95565b9150509250925092565b60008060408385031215610b7157600080fd5b6000610b7f85828601610a80565b9250506020610b9085828601610a95565b9150509250929050565b610ba38161107b565b82525050565b6000610bb482610ff7565b610bbe8185611002565b9350610bce8185602086016110be565b610bd781611181565b840191505092915050565b6000610bef602383611002565b91507f45524332303a207472616e7366657220746f20746865207a65726f206164647260008301527f65737300000000000000000000000000000000000000000000000000000000006020830152604082019050919050565b6000610c55602283611002565b91507f45524332303a20617070726f766520746f20746865207a65726f20616464726560008301527f73730000000000000000000000000000000000000000000000000000000000006020830152604082019050919050565b6000610cbb601d83611002565b91507f45524332303a20696e73756666696369656e7420616c6c6f77616e63650000006000830152602082019050919050565b6000610cfb602683611002565b91507f45524332303a207472616e7366657220616d6f756e742065786365656473206260008301527f616c616e636500000000000000000000000000000000000000000000000000006020830152604082019050919050565b6000610d61602583611002565b91507f45524332303a207472616e736665722066726f6d20746865207a65726f20616460008301527f64726573730000000000000000000000000000000000000000000000000000006020830152604082019050919050565b6000610dc7602483611002565b91507f45524332303a20617070726f76652066726f6d20746865207a65726f2061646460008301527f72657373000000000000000000000000000000000000000000000000000000006020830152604082019050919050565b6000610e2d602583611002565b91507f45524332303a2064656372656173656420616c6c6f77616e63652062656c6f7760008301527f207a65726f0000000000000000000000000000000000000000000000000000006020830152604082019050919050565b610e8f816110a7565b82525050565b610e9e816110b1565b82525050565b6000602082019050610eb96000830184610b9a565b92915050565b60006020820190508181036000830152610ed98184610ba9565b905092915050565b60006020820190508181036000830152610efa81610be2565b9050919050565b60006020820190508181036000830152610f1a81610c48565b9050919050565b60006020820190508181036000830152610f3a81610cae565b9050919050565b60006020820190508181036000830152610f5a81610cee565b9050919050565b60006020820190508181036000830152610f7a81610d54565b9050919050565b60006020820190508181036000830152610f9a81610dba565b9050919050565b60006020820190508181036000830152610fba81610e20565b9050919050565b6000602082019050610fd66000830184610e86565b92915050565b6000602082019050610ff16000830184610e95565b92915050565b600081519050919050565b600082825260208201905092915050565b600061101e826110a7565b9150611029836110a7565b9250827fffffffffffffffffffffffffffffffffffffffffffffffffffffffffffffffff0382111561105e5761105d611123565b5b828201905092915050565b600061107482611087565b9050919050565b60008115159050919050565b600073ffffffffffffffffffffffffffffffffffffffff82169050919050565b6000819050919050565b600060ff82169050919050565b60005b838110156110dc5780820151818401526020810190506110c1565b838111156110eb576000848401525b50505050565b6000600282049050600182168061110957607f821691505b6020821081141561111d5761111c611152565b5b50919050565b7f4e487b7100000000000000000000000000000000000000000000000000000000600052601160045260246000fd5b7f4e487b7100000000000000000000000000000000000000000000000000000000600052602260045260246000fd5b6000601f19601f8301169050919050565b61119b81611069565b81146111a657600080fd5b50565b6111b2816110a7565b81146111bd57600080fd5b5056fea26469706673582212204a6f0ca91f07f13295d59d4822aedca7fabe0121867a744b4e39e00c75efed2c64736f6c63430008000033",
  "linkReferences": {},
  "deployedLinkReferences": {}
}