{
  "_format": "hh-sol-artifact-1",
  "contractName": "CustomDex",
  "sourceName": "contracts/CustomEx.sol",
  "abi": [
    {
      "inputs": [],
      "stateMutability": "nonpayable",
      "type": "constructor"
    },
    {
      "anonymous": false,
      "inputs": [
        {
          "indexed": false,
          "internalType": "uint256",
          "name": "value",
          "type": "uint256"
        }
      ],
      "name": "debugPrinter",
      "type": "event"
    },
    {
      "inputs": [],
      "name": "_historyIndex",
      "outputs": [
        {
          "internalType": "uint256",
          "name": "",
          "type": "uint256"
        }
      ],
      "stateMutability": "view",
      "type": "function"
    },
    {
      "inputs": [],
      "name": "getAllHistory",
      "outputs": [
        {
          "components": [
            {
              "internalType": "uint256",
              "name": "historyId",
              "type": "uint256"
            },
            {
              "internalType": "string",
              "name": "tokenA",
              "type": "string"
            },
            {
              "internalType": "string",
              "name": "tokenB",
              "type": "string"
            },
            {
              "internalType": "uint256",
              "name": "inputValue",
              "type": "uint256"
            },
            {
              "internalType": "uint256",
              "name": "outputValue",
              "type": "uint256"
            },
            {
              "internalType": "address",
              "name": "userAddress",
              "type": "address"
            }
          ],
          "internalType": "struct CustomDex.History[]",
          "name": "",
          "type": "tuple[]"
        }
      ],
      "stateMutability": "view",
      "type": "function"
    },
    {
      "inputs": [
        {
          "internalType": "string",
          "name": "tokenName",
          "type": "string"
        },
        {
          "internalType": "address",
          "name": "_address",
          "type": "address"
        }
      ],
      "name": "getBalance",
      "outputs": [
        {
          "internalType": "uint256",
          "name": "",
          "type": "uint256"
        }
      ],
      "stateMutability": "view",
      "type": "function"
    },
    {
      "inputs": [],
      "name": "getEtherBalance",
      "outputs": [
        {
          "internalType": "uint256",
          "name": "",
          "type": "uint256"
        }
      ],
      "stateMutability": "view",
      "type": "function"
    },
    {
      "inputs": [
        {
          "internalType": "string",
          "name": "tokenName",
          "type": "string"
        }
      ],
      "name": "getName",
      "outputs": [
        {
          "internalType": "string",
          "name": "",
          "type": "string"
        }
      ],
      "stateMutability": "view",
      "type": "function"
    },
    {
      "inputs": [
        {
          "internalType": "string",
          "name": "tokenName",
          "type": "string"
        }
      ],
      "name": "getTokenAddress",
      "outputs": [
        {
          "internalType": "address",
          "name": "",
          "type": "address"
        }
      ],
      "stateMutability": "view",
      "type": "function"
    },
    {
      "inputs": [
        {
          "internalType": "string",
          "name": "tokenName",
          "type": "string"
        }
      ],
      "name": "getTotalSupply",
      "outputs": [
        {
          "internalType": "uint256",
          "name": "",
          "type": "uint256"
        }
      ],
      "stateMutability": "view",
      "type": "function"
    },
    {
      "inputs": [
        {
          "internalType": "string",
          "name": "tokenName",
          "type": "string"
        }
      ],
      "name": "swapEthToToken",
      "outputs": [
        {
          "internalType": "uint256",
          "name": "",
          "type": "uint256"
        }
      ],
      "stateMutability": "payable",
      "type": "function"
    },
    {
      "inputs": [
        {
          "internalType": "string",
          "name": "tokenName",
          "type": "string"
        },
        {
          "internalType": "uint256",
          "name": "_amount",
          "type": "uint256"
        }
      ],
      "name": "swapTokenToEth",
      "outputs": [
        {
          "internalType": "uint256",
          "name": "",
          "type": "uint256"
        }
      ],
      "stateMutability": "nonpayable",
      "type": "function"
    },
    {
      "inputs": [
        {
          "internalType": "string",
          "name": "srcTokenName",
          "type": "string"
        },
        {
          "internalType": "string",
          "name": "destTokenName",
          "type": "string"
        },
        {
          "internalType": "uint256",
          "name": "_amount",
          "type": "uint256"
        }
      ],
      "name": "swapTokenToToken",
      "outputs": [],
      "stateMutability": "nonpayable",
      "type": "function"
    },
    {
      "inputs": [
        {
          "internalType": "string",
          "name": "",
          "type": "string"
        }
      ],
      "name": "tokenInstanceMap",
      "outputs": [
        {
          "internalType": "contract ERC20",
          "name": "",
          "type": "address"
        }
      ],
      "stateMutability": "view",
      "type": "function"
    },
    {
      "inputs": [
        {
          "internalType": "uint256",
          "name": "",
          "type": "uint256"
        }
      ],
      "name": "tokens",
      "outputs": [
        {
          "internalType": "string",
          "name": "",
          "type": "string"
        }
      ],
      "stateMutability": "view",
      "type": "function"
    }
  ],
  "bytecode": "0x60806040526040518061010001604052806040518060400160405280600a81526020017f546574686572205553440000000000000000000000000000000000000000000081525081526020016040518060400160405280600381526020017f424e42000000000000000000000000000000000000000000000000000000000081525081526020016040518060400160405280600881526020017f55534420436f696e00000000000000000000000000000000000000000000000081525081526020016040518060400160405280600581526020017f737445544800000000000000000000000000000000000000000000000000000081525081526020016040518060400160405280600481526020017f54524f4e0000000000000000000000000000000000000000000000000000000081525081526020016040518060400160405280600b81526020017f4d6174696320546f6b656e00000000000000000000000000000000000000000081525081526020016040518060400160405280600981526020017f534849424120494e55000000000000000000000000000000000000000000000081525081526020016040518060400160405280600781526020017f556e6973776170000000000000000000000000000000000000000000000000008152508152506000906008620001f89291906200039f565b503480156200020657600080fd5b5060005b6000805490508110156200039857600080828154811062000254577f4e487b7100000000000000000000000000000000000000000000000000000000600052603260045260246000fd5b906000526020600020016000838154811062000299577f4e487b7100000000000000000000000000000000000000000000000000000000600052603260045260246000fd5b90600052602060002001604051620002b19062000406565b620002be92919062000662565b604051809103906000f080158015620002db573d6000803e3d6000fd5b509050806001600084815481106200031c577f4e487b7100000000000000000000000000000000000000000000000000000000600052603260045260246000fd5b9060005260206000200160405162000335919062000649565b908152602001604051809103902060006101000a81548173ffffffffffffffffffffffffffffffffffffffff021916908373ffffffffffffffffffffffffffffffffffffffff1602179055505080806200038f906200070e565b9150506200020a565b50620007ba565b828054828255906000526020600020908101928215620003f3579160200282015b82811115620003f2578251829080519060200190620003e192919062000414565b5091602001919060010190620003c0565b5b509050620004029190620004a5565b5090565b61180f806200289783390190565b8280546200042290620006d8565b90600052602060002090601f01602090048101928262000446576000855562000492565b82601f106200046157805160ff191683800117855562000492565b8280016001018555821562000492579182015b828111156200049157825182559160200191906001019062000474565b5b509050620004a19190620004cd565b5090565b5b80821115620004c95760008181620004bf9190620004ec565b50600101620004a6565b5090565b5b80821115620004e8576000816000905550600101620004ce565b5090565b508054620004fa90620006d8565b6000825580601f106200050e57506200052f565b601f0160209004906000526020600020908101906200052e9190620004cd565b5b50565b600081546200054181620006d8565b6200054d8186620006b2565b945060018216600081146200056b57600181146200057e57620005b5565b60ff1983168652602086019350620005b5565b62000589856200069d565b60005b83811015620005ad578154818901526001820191506020810190506200058c565b808801955050505b50505092915050565b60008154620005cd81620006d8565b620005d98186620006c3565b94506001821660008114620005f75760018114620006095762000640565b60ff1983168652818601935062000640565b62000614856200069d565b60005b83811015620006385781548189015260018201915060208101905062000617565b838801955050505b50505092915050565b6000620006578284620005be565b915081905092915050565b600060408201905081810360008301526200067e818562000532565b9050818103602083015262000694818462000532565b90509392505050565b60008190508160005260206000209050919050565b600082825260208201905092915050565b600081905092915050565b6000819050919050565b60006002820490506001821680620006f157607f821691505b602082108114156200070857620007076200078b565b5b50919050565b60006200071b82620006ce565b91507fffffffffffffffffffffffffffffffffffffffffffffffffffffffffffffffff8214156200075157620007506200075c565b5b600182019050919050565b7f4e487b7100000000000000000000000000000000000000000000000000000000600052601160045260246000fd5b7f4e487b7100000000000000000000000000000000000000000000000000000000600052602260045260246000fd5b6120cd80620007ca6000396000f3fe6080604052600436106100a75760003560e01c806389f4b3171161006457806389f4b317146101e9578063a93325ed14610226578063bf015aae14610263578063c40912361461028c578063db6f63ee146102c9578063ea46193e14610306576100a7565b806319b3c12d146100ac57806339c5891a146100d75780634f64b2be146101025780635463109e1461013f57806363fcf7c51461017c5780636932cf81146101ac575b600080fd5b3480156100b857600080fd5b506100c1610331565b6040516100ce9190611ada565b60405180910390f35b3480156100e357600080fd5b506100ec610337565b6040516100f99190611a00565b60405180910390f35b34801561010e57600080fd5b506101296004803603810190610124919061161d565b6105f1565b6040516101369190611a58565b60405180910390f35b34801561014b57600080fd5b5061016660048036038101906101619190611474565b61069d565b6040516101739190611ada565b60405180910390f35b61019660048036038101906101919190611474565b610762565b6040516101a39190611ada565b60405180910390f35b3480156101b857600080fd5b506101d360048036038101906101ce9190611474565b610a4e565b6040516101e09190611a58565b60405180910390f35b3480156101f557600080fd5b50610210600480360381019061020b91906114f6565b610b18565b60405161021d9190611ada565b60405180910390f35b34801561023257600080fd5b5061024d60048036038101906102489190611474565b610be9565b60405161025a9190611a22565b60405180910390f35b34801561026f57600080fd5b5061028a6004803603810190610285919061154a565b610c32565b005b34801561029857600080fd5b506102b360048036038101906102ae9190611474565b610e65565b6040516102c09190611985565b60405180910390f35b3480156102d557600080fd5b506102f060048036038101906102eb91906115c9565b610ead565b6040516102fd9190611ada565b60405180910390f35b34801561031257600080fd5b5061031b61114d565b6040516103289190611ada565b60405180910390f35b60025481565b60606000600254905060008167ffffffffffffffff811115610382577f4e487b7100000000000000000000000000000000000000000000000000000000600052604160045260246000fd5b6040519080825280602002602001820160405280156103bb57816020015b6103a8611223565b8152602001906001900390816103a05790505b50905060005b828110156105e85760006001826103d89190611bc7565b9050600360008281526020019081526020016000206040518060c00160405290816000820154815260200160018201805461041290611ee6565b80601f016020809104026020016040519081016040528092919081815260200182805461043e90611ee6565b801561048b5780601f106104605761010080835404028352916020019161048b565b820191906000526020600020905b81548152906001019060200180831161046e57829003601f168201915b505050505081526020016002820180546104a490611ee6565b80601f01602080910402602001604051908101604052809291908181526020018280546104d090611ee6565b801561051d5780601f106104f25761010080835404028352916020019161051d565b820191906000526020600020905b81548152906001019060200180831161050057829003601f168201915b5050505050815260200160038201548152602001600482015481526020016005820160009054906101000a900473ffffffffffffffffffffffffffffffffffffffff1673ffffffffffffffffffffffffffffffffffffffff1673ffffffffffffffffffffffffffffffffffffffff16815250508383815181106105c9577f4e487b7100000000000000000000000000000000000000000000000000000000600052603260045260246000fd5b60200260200101819052505080806105e090611f18565b9150506103c1565b50809250505090565b6000818154811061060157600080fd5b90600052602060002001600091509050805461061c90611ee6565b80601f016020809104026020016040519081016040528092919081815260200182805461064890611ee6565b80156106955780601f1061066a57610100808354040283529160200191610695565b820191906000526020600020905b81548152906001019060200180831161067857829003601f168201915b505050505081565b60006001826040516106af919061196e565b908152602001604051809103902060009054906101000a900473ffffffffffffffffffffffffffffffffffffffff1673ffffffffffffffffffffffffffffffffffffffff166318160ddd6040518163ffffffff1660e01b815260040160206040518083038186803b15801561072357600080fd5b505afa158015610737573d6000803e3d6000fd5b505050506040513d601f19601f8201168201806040525081019061075b9190611646565b9050919050565b6000803490506000670de0b6b3a7640000808361077f9190611c1d565b6107899190611dbf565b90507f20bdc89eb3be1ff0cdf64bc22a78a409d367ff358271cbbdab8fd5c1f9f4d549826040516107ba9190611ada565b60405180910390a17f20bdc89eb3be1ff0cdf64bc22a78a409d367ff358271cbbdab8fd5c1f9f4d5496127756040516107f39190611a3d565b60405180910390a17f20bdc89eb3be1ff0cdf64bc22a78a409d367ff358271cbbdab8fd5c1f9f4d5498160405161082a9190611ada565b60405180910390a17f20bdc89eb3be1ff0cdf64bc22a78a409d367ff358271cbbdab8fd5c1f9f4d5496127756040516108639190611a3d565b60405180910390a17f20bdc89eb3be1ff0cdf64bc22a78a409d367ff358271cbbdab8fd5c1f9f4d549670de0b6b3a76400006040516108a29190611ada565b60405180910390a1600081116108ed576040517f08c379a00000000000000000000000000000000000000000000000000000000081526004016108e490611aba565b60405180910390fd5b60006001856040516108ff919061196e565b908152602001604051809103902060009054906101000a900473ffffffffffffffffffffffffffffffffffffffff1690508073ffffffffffffffffffffffffffffffffffffffff1663a9059cbb33846040518363ffffffff1660e01b815260040161096b9291906119d7565b602060405180830381600087803b15801561098557600080fd5b505af1158015610999573d6000803e3d6000fd5b505050506040513d601f19601f820116820180604052508101906109bd919061144b565b6109fc576040517f08c379a00000000000000000000000000000000000000000000000000000000081526004016109f390611a7a565b60405180910390fd5b60006040518060400160405280600581526020017f45746865720000000000000000000000000000000000000000000000000000008152509050610a4286828686611155565b82945050505050919050565b6060600182604051610a60919061196e565b908152602001604051809103902060009054906101000a900473ffffffffffffffffffffffffffffffffffffffff1673ffffffffffffffffffffffffffffffffffffffff166306fdde036040518163ffffffff1660e01b815260040160006040518083038186803b158015610ad457600080fd5b505afa158015610ae8573d6000803e3d6000fd5b505050506040513d6000823e3d601f19601f82011682018060405250810190610b1191906114b5565b9050919050565b6000600183604051610b2a919061196e565b908152602001604051809103902060009054906101000a900473ffffffffffffffffffffffffffffffffffffffff1673ffffffffffffffffffffffffffffffffffffffff166370a08231836040518263ffffffff1660e01b8152600401610b919190611985565b60206040518083038186803b158015610ba957600080fd5b505afa158015610bbd573d6000803e3d6000fd5b505050506040513d601f19601f82011682018060405250810190610be19190611646565b905092915050565b6001818051602081018201805184825260208301602085012081835280955050505050506000915054906101000a900473ffffffffffffffffffffffffffffffffffffffff1681565b6000600184604051610c44919061196e565b908152602001604051809103902060009054906101000a900473ffffffffffffffffffffffffffffffffffffffff1690506000600184604051610c87919061196e565b908152602001604051809103902060009054906101000a900473ffffffffffffffffffffffffffffffffffffffff1690508173ffffffffffffffffffffffffffffffffffffffff166323b872dd3330866040518463ffffffff1660e01b8152600401610cf5939291906119a0565b602060405180830381600087803b158015610d0f57600080fd5b505af1158015610d23573d6000803e3d6000fd5b505050506040513d601f19601f82011682018060405250810190610d47919061144b565b610d86576040517f08c379a0000000000000000000000000000000000000000000000000000000008152600401610d7d90611a7a565b60405180910390fd5b8073ffffffffffffffffffffffffffffffffffffffff1663a9059cbb33856040518363ffffffff1660e01b8152600401610dc19291906119d7565b602060405180830381600087803b158015610ddb57600080fd5b505af1158015610def573d6000803e3d6000fd5b505050506040513d601f19601f82011682018060405250810190610e13919061144b565b610e52576040517f08c379a0000000000000000000000000000000000000000000000000000000008152600401610e4990611a7a565b60405180910390fd5b610e5e85858586611155565b5050505050565b6000600182604051610e77919061196e565b908152602001604051809103902060009054906101000a900473ffffffffffffffffffffffffffffffffffffffff169050919050565b600080600184604051610ec0919061196e565b908152602001604051809103902060009054906101000a900473ffffffffffffffffffffffffffffffffffffffff16905060008173ffffffffffffffffffffffffffffffffffffffff1663313ce5676040518163ffffffff1660e01b815260040160206040518083038186803b158015610f3957600080fd5b505afa158015610f4d573d6000803e3d6000fd5b505050506040513d601f19601f82011682018060405250810190610f71919061166f565b600a610f7d9190611ca1565b84610f889190611c1d565b90506000670de0b6b3a764000082610fa09190611dbf565b905080471015610fe5576040517f08c379a0000000000000000000000000000000000000000000000000000000008152600401610fdc90611a9a565b60405180910390fd5b3373ffffffffffffffffffffffffffffffffffffffff166108fc829081150290604051600060405180830381858888f1935050505015801561102b573d6000803e3d6000fd5b508273ffffffffffffffffffffffffffffffffffffffff166323b872dd3330886040518463ffffffff1660e01b8152600401611069939291906119a0565b602060405180830381600087803b15801561108357600080fd5b505af1158015611097573d6000803e3d6000fd5b505050506040513d601f19601f820116820180604052508101906110bb919061144b565b6110fa576040517f08c379a00000000000000000000000000000000000000000000000000000000081526004016110f190611a7a565b60405180910390fd5b60006040518060400160405280600581526020017f4574686572000000000000000000000000000000000000000000000000000000815250905061114087828585611155565b8194505050505092915050565b600047905090565b6002600081548092919061116890611f18565b9190505550600060025490506000600360008381526020019081526020016000209050818160000181905550338160050160006101000a81548173ffffffffffffffffffffffffffffffffffffffff021916908373ffffffffffffffffffffffffffffffffffffffff160217905550858160010190805190602001906111ef92919061126f565b508481600201908051906020019061120892919061126f565b50838160030181905550828160040181905550505050505050565b6040518060c001604052806000815260200160608152602001606081526020016000815260200160008152602001600073ffffffffffffffffffffffffffffffffffffffff1681525090565b82805461127b90611ee6565b90600052602060002090601f01602090048101928261129d57600085556112e4565b82601f106112b657805160ff19168380011785556112e4565b828001600101855582156112e4579182015b828111156112e35782518255916020019190600101906112c8565b5b5090506112f191906112f5565b5090565b5b8082111561130e5760008160009055506001016112f6565b5090565b600061132561132084611b26565b611af5565b90508281526020810184848401111561133d57600080fd5b611348848285611ea4565b509392505050565b600061136361135e84611b26565b611af5565b90508281526020810184848401111561137b57600080fd5b611386848285611eb3565b509392505050565b60008135905061139d8161203b565b92915050565b6000815190506113b281612052565b92915050565b600082601f8301126113c957600080fd5b81356113d9848260208601611312565b91505092915050565b600082601f8301126113f357600080fd5b8151611403848260208601611350565b91505092915050565b60008135905061141b81612069565b92915050565b60008151905061143081612069565b92915050565b60008151905061144581612080565b92915050565b60006020828403121561145d57600080fd5b600061146b848285016113a3565b91505092915050565b60006020828403121561148657600080fd5b600082013567ffffffffffffffff8111156114a057600080fd5b6114ac848285016113b8565b91505092915050565b6000602082840312156114c757600080fd5b600082015167ffffffffffffffff8111156114e157600080fd5b6114ed848285016113e2565b91505092915050565b6000806040838503121561150957600080fd5b600083013567ffffffffffffffff81111561152357600080fd5b61152f858286016113b8565b92505060206115408582860161138e565b9150509250929050565b60008060006060848603121561155f57600080fd5b600084013567ffffffffffffffff81111561157957600080fd5b611585868287016113b8565b935050602084013567ffffffffffffffff8111156115a257600080fd5b6115ae868287016113b8565b92505060406115bf8682870161140c565b9150509250925092565b600080604083850312156115dc57600080fd5b600083013567ffffffffffffffff8111156115f657600080fd5b611602858286016113b8565b92505060206116138582860161140c565b9150509250929050565b60006020828403121561162f57600080fd5b600061163d8482850161140c565b91505092915050565b60006020828403121561165857600080fd5b600061166684828501611421565b91505092915050565b60006020828403121561168157600080fd5b600061168f84828501611436565b91505092915050565b60006116a483836118c0565b905092915050565b6116b581611e19565b82525050565b6116c481611e19565b82525050565b60006116d582611b66565b6116df8185611b89565b9350836020820285016116f185611b56565b8060005b8581101561172d578484038952815161170e8582611698565b945061171983611b7c565b925060208a019950506001810190506116f5565b50829750879550505050505092915050565b61174881611e6e565b82525050565b61175781611e92565b82525050565b600061176882611b71565b6117728185611b9a565b9350611782818560208601611eb3565b61178b8161201d565b840191505092915050565b60006117a182611b71565b6117ab8185611bab565b93506117bb818560208601611eb3565b6117c48161201d565b840191505092915050565b60006117da82611b71565b6117e48185611bbc565b93506117f4818560208601611eb3565b80840191505092915050565b600061180d600f83611bab565b91507f5472616e73666572206661696c656400000000000000000000000000000000006000830152602082019050919050565b600061184d601d83611bab565b91507f4465782069732072756e6e696e67206c6f77206f6e2062616c616e63650000006000830152602082019050919050565b600061188d601983611bab565b91507f496e73756666696369656e74204554482070726f7669646564000000000000006000830152602082019050919050565b600060c0830160008301516118d86000860182611950565b50602083015184820360208601526118f0828261175d565b9150506040830151848203604086015261190a828261175d565b915050606083015161191f6060860182611950565b5060808301516119326080860182611950565b5060a083015161194560a08601826116ac565b508091505092915050565b61195981611e57565b82525050565b61196881611e57565b82525050565b600061197a82846117cf565b915081905092915050565b600060208201905061199a60008301846116bb565b92915050565b60006060820190506119b560008301866116bb565b6119c260208301856116bb565b6119cf604083018461195f565b949350505050565b60006040820190506119ec60008301856116bb565b6119f9602083018461195f565b9392505050565b60006020820190508181036000830152611a1a81846116ca565b905092915050565b6000602082019050611a37600083018461173f565b92915050565b6000602082019050611a52600083018461174e565b92915050565b60006020820190508181036000830152611a728184611796565b905092915050565b60006020820190508181036000830152611a9381611800565b9050919050565b60006020820190508181036000830152611ab381611840565b9050919050565b60006020820190508181036000830152611ad381611880565b9050919050565b6000602082019050611aef600083018461195f565b92915050565b6000604051905081810181811067ffffffffffffffff82111715611b1c57611b1b611fee565b5b8060405250919050565b600067ffffffffffffffff821115611b4157611b40611fee565b5b601f19601f8301169050602081019050919050565b6000819050602082019050919050565b600081519050919050565b600081519050919050565b6000602082019050919050565b600082825260208201905092915050565b600082825260208201905092915050565b600082825260208201905092915050565b600081905092915050565b6000611bd282611e57565b9150611bdd83611e57565b9250827fffffffffffffffffffffffffffffffffffffffffffffffffffffffffffffffff03821115611c1257611c11611f61565b5b828201905092915050565b6000611c2882611e57565b9150611c3383611e57565b925082611c4357611c42611f90565b5b828204905092915050565b6000808291508390505b6001851115611c9857808604811115611c7457611c73611f61565b5b6001851615611c835780820291505b8081029050611c918561202e565b9450611c58565b94509492505050565b6000611cac82611e57565b9150611cb783611e61565b9250611ce47fffffffffffffffffffffffffffffffffffffffffffffffffffffffffffffffff8484611cec565b905092915050565b600082611cfc5760019050611db8565b81611d0a5760009050611db8565b8160018114611d205760028114611d2a57611d59565b6001915050611db8565b60ff841115611d3c57611d3b611f61565b5b8360020a915084821115611d5357611d52611f61565b5b50611db8565b5060208310610133831016604e8410600b8410161715611d8e5782820a905083811115611d8957611d88611f61565b5b611db8565b611d9b8484846001611c4e565b92509050818404811115611db257611db1611f61565b5b81810290505b9392505050565b6000611dca82611e57565b9150611dd583611e57565b9250817fffffffffffffffffffffffffffffffffffffffffffffffffffffffffffffffff0483118215151615611e0e57611e0d611f61565b5b828202905092915050565b6000611e2482611e37565b9050919050565b60008115159050919050565b600073ffffffffffffffffffffffffffffffffffffffff82169050919050565b6000819050919050565b600060ff82169050919050565b6000611e7982611e80565b9050919050565b6000611e8b82611e37565b9050919050565b6000611e9d82611e57565b9050919050565b82818337600083830152505050565b60005b83811015611ed1578082015181840152602081019050611eb6565b83811115611ee0576000848401525b50505050565b60006002820490506001821680611efe57607f821691505b60208210811415611f1257611f11611fbf565b5b50919050565b6000611f2382611e57565b91507fffffffffffffffffffffffffffffffffffffffffffffffffffffffffffffffff821415611f5657611f55611f61565b5b600182019050919050565b7f4e487b7100000000000000000000000000000000000000000000000000000000600052601160045260246000fd5b7f4e487b7100000000000000000000000000000000000000000000000000000000600052601260045260246000fd5b7f4e487b7100000000000000000000000000000000000000000000000000000000600052602260045260246000fd5b7f4e487b7100000000000000000000000000000000000000000000000000000000600052604160045260246000fd5b6000601f19601f8301169050919050565b60008160011c9050919050565b61204481611e19565b811461204f57600080fd5b50565b61205b81611e2b565b811461206657600080fd5b50565b61207281611e57565b811461207d57600080fd5b50565b61208981611e61565b811461209457600080fd5b5056fea2646970667358221220a8e4f9759af675acc96d7307cf7d579667f3a148587b62becde95482507d4a2464736f6c6343000800003360806040523480156200001157600080fd5b506040516200180f3803806200180f83398181016040528101906200003791906200032c565b81818160039080519060200190620000519291906200020a565b5080600490805190602001906200006a9291906200020a565b5050506200008a336a084595161401484a0000006200009260201b60201c565b505062000609565b600073ffffffffffffffffffffffffffffffffffffffff168273ffffffffffffffffffffffffffffffffffffffff16141562000105576040517f08c379a0000000000000000000000000000000000000000000000000000000008152600401620000fc90620003f2565b60405180910390fd5b62000119600083836200020060201b60201c565b80600260008282546200012d9190620004a9565b92505081905550806000808473ffffffffffffffffffffffffffffffffffffffff1673ffffffffffffffffffffffffffffffffffffffff168152602001908152602001600020600082825401925050819055508173ffffffffffffffffffffffffffffffffffffffff16600073ffffffffffffffffffffffffffffffffffffffff167fddf252ad1be2c89b69c2b068fc378daa952ba7f163c4a11628f55a4df523b3ef83604051620001e0919062000414565b60405180910390a3620001fc600083836200020560201b60201c565b5050565b505050565b505050565b828054620002189062000546565b90600052602060002090601f0160209004810192826200023c576000855562000288565b82601f106200025757805160ff191683800117855562000288565b8280016001018555821562000288579182015b82811115620002875782518255916020019190600101906200026a565b5b5090506200029791906200029b565b5090565b5b80821115620002b65760008160009055506001016200029c565b5090565b6000620002d1620002cb8462000465565b62000431565b905082815260208101848484011115620002ea57600080fd5b620002f784828562000510565b509392505050565b600082601f8301126200031157600080fd5b815162000323848260208601620002ba565b91505092915050565b600080604083850312156200034057600080fd5b600083015167ffffffffffffffff8111156200035b57600080fd5b6200036985828601620002ff565b925050602083015167ffffffffffffffff8111156200038757600080fd5b6200039585828601620002ff565b9150509250929050565b6000620003ae601f8362000498565b91507f45524332303a206d696e7420746f20746865207a65726f2061646472657373006000830152602082019050919050565b620003ec8162000506565b82525050565b600060208201905081810360008301526200040d816200039f565b9050919050565b60006020820190506200042b6000830184620003e1565b92915050565b6000604051905081810181811067ffffffffffffffff821117156200045b576200045a620005da565b5b8060405250919050565b600067ffffffffffffffff821115620004835762000482620005da565b5b601f19601f8301169050602081019050919050565b600082825260208201905092915050565b6000620004b68262000506565b9150620004c38362000506565b9250827fffffffffffffffffffffffffffffffffffffffffffffffffffffffffffffffff03821115620004fb57620004fa6200057c565b5b828201905092915050565b6000819050919050565b60005b838110156200053057808201518184015260208101905062000513565b8381111562000540576000848401525b50505050565b600060028204905060018216806200055f57607f821691505b60208210811415620005765762000575620005ab565b5b50919050565b7f4e487b7100000000000000000000000000000000000000000000000000000000600052601160045260246000fd5b7f4e487b7100000000000000000000000000000000000000000000000000000000600052602260045260246000fd5b7f4e487b7100000000000000000000000000000000000000000000000000000000600052604160045260246000fd5b6111f680620006196000396000f3fe608060405234801561001057600080fd5b50600436106100a95760003560e01c80633950935111610071578063395093511461016857806370a082311461019857806395d89b41146101c8578063a457c2d7146101e6578063a9059cbb14610216578063dd62ed3e14610246576100a9565b806306fdde03146100ae578063095ea7b3146100cc57806318160ddd146100fc57806323b872dd1461011a578063313ce5671461014a575b600080fd5b6100b6610276565b6040516100c39190610ebf565b60405180910390f35b6100e660048036038101906100e19190610b5e565b610308565b6040516100f39190610ea4565b60405180910390f35b61010461032b565b6040516101119190610fc1565b60405180910390f35b610134600480360381019061012f9190610b0f565b610335565b6040516101419190610ea4565b60405180910390f35b610152610364565b60405161015f9190610fdc565b60405180910390f35b610182600480360381019061017d9190610b5e565b61036d565b60405161018f9190610ea4565b60405180910390f35b6101b260048036038101906101ad9190610aaa565b6103a4565b6040516101bf9190610fc1565b60405180910390f35b6101d06103ec565b6040516101dd9190610ebf565b60405180910390f35b61020060048036038101906101fb9190610b5e565b61047e565b60405161020d9190610ea4565b60405180910390f35b610230600480360381019061022b9190610b5e565b6104f5565b60405161023d9190610ea4565b60405180910390f35b610260600480360381019061025b9190610ad3565b610518565b60405161026d9190610fc1565b60405180910390f35b606060038054610285906110f1565b80601f01602080910402602001604051908101604052809291908181526020018280546102b1906110f1565b80156102fe5780601f106102d3576101008083540402835291602001916102fe565b820191906000526020600020905b8154815290600101906020018083116102e157829003601f168201915b5050505050905090565b60008061031361059f565b90506103208185856105a7565b600191505092915050565b6000600254905090565b60008061034061059f565b905061034d858285610772565b6103588585856107fe565b60019150509392505050565b60006012905090565b60008061037861059f565b905061039981858561038a8589610518565b6103949190611013565b6105a7565b600191505092915050565b60008060008373ffffffffffffffffffffffffffffffffffffffff1673ffffffffffffffffffffffffffffffffffffffff168152602001908152602001600020549050919050565b6060600480546103fb906110f1565b80601f0160208091040260200160405190810160405280929190818152602001828054610427906110f1565b80156104745780601f1061044957610100808354040283529160200191610474565b820191906000526020600020905b81548152906001019060200180831161045757829003601f168201915b5050505050905090565b60008061048961059f565b905060006104978286610518565b9050838110156104dc576040517f08c379a00000000000000000000000000000000000000000000000000000000081526004016104d390610fa1565b60405180910390fd5b6104e982868684036105a7565b60019250505092915050565b60008061050061059f565b905061050d8185856107fe565b600191505092915050565b6000600160008473ffffffffffffffffffffffffffffffffffffffff1673ffffffffffffffffffffffffffffffffffffffff16815260200190815260200160002060008373ffffffffffffffffffffffffffffffffffffffff1673ffffffffffffffffffffffffffffffffffffffff16815260200190815260200160002054905092915050565b600033905090565b600073ffffffffffffffffffffffffffffffffffffffff168373ffffffffffffffffffffffffffffffffffffffff161415610617576040517f08c379a000000000000000000000000000000000000000000000000000000000815260040161060e90610f81565b60405180910390fd5b600073ffffffffffffffffffffffffffffffffffffffff168273ffffffffffffffffffffffffffffffffffffffff161415610687576040517f08c379a000000000000000000000000000000000000000000000000000000000815260040161067e90610f01565b60405180910390fd5b80600160008573ffffffffffffffffffffffffffffffffffffffff1673ffffffffffffffffffffffffffffffffffffffff16815260200190815260200160002060008473ffffffffffffffffffffffffffffffffffffffff1673ffffffffffffffffffffffffffffffffffffffff168152602001908152602001600020819055508173ffffffffffffffffffffffffffffffffffffffff168373ffffffffffffffffffffffffffffffffffffffff167f8c5be1e5ebec7d5bd14f71427d1e84f3dd0314c0f7b2291e5b200ac8c7c3b925836040516107659190610fc1565b60405180910390a3505050565b600061077e8484610518565b90507fffffffffffffffffffffffffffffffffffffffffffffffffffffffffffffffff81146107f857818110156107ea576040517f08c379a00000000000000000000000000000000000000000000000000000000081526004016107e190610f21565b60405180910390fd5b6107f784848484036105a7565b5b50505050565b600073ffffffffffffffffffffffffffffffffffffffff168373ffffffffffffffffffffffffffffffffffffffff16141561086e576040517f08c379a000000000000000000000000000000000000000000000000000000000815260040161086590610f61565b60405180910390fd5b600073ffffffffffffffffffffffffffffffffffffffff168273ffffffffffffffffffffffffffffffffffffffff1614156108de576040517f08c379a00000000000000000000000000000000000000000000000000000000081526004016108d590610ee1565b60405180910390fd5b6108e9838383610a76565b60008060008573ffffffffffffffffffffffffffffffffffffffff1673ffffffffffffffffffffffffffffffffffffffff1681526020019081526020016000205490508181101561096f576040517f08c379a000000000000000000000000000000000000000000000000000000000815260040161096690610f41565b60405180910390fd5b8181036000808673ffffffffffffffffffffffffffffffffffffffff1673ffffffffffffffffffffffffffffffffffffffff16815260200190815260200160002081905550816000808573ffffffffffffffffffffffffffffffffffffffff1673ffffffffffffffffffffffffffffffffffffffff168152602001908152602001600020600082825401925050819055508273ffffffffffffffffffffffffffffffffffffffff168473ffffffffffffffffffffffffffffffffffffffff167fddf252ad1be2c89b69c2b068fc378daa952ba7f163c4a11628f55a4df523b3ef84604051610a5d9190610fc1565b60405180910390a3610a70848484610a7b565b50505050565b505050565b505050565b600081359050610a8f81611192565b92915050565b600081359050610aa4816111a9565b92915050565b600060208284031215610abc57600080fd5b6000610aca84828501610a80565b91505092915050565b60008060408385031215610ae657600080fd5b6000610af485828601610a80565b9250506020610b0585828601610a80565b9150509250929050565b600080600060608486031215610b2457600080fd5b6000610b3286828701610a80565b9350506020610b4386828701610a80565b9250506040610b5486828701610a95565b9150509250925092565b60008060408385031215610b7157600080fd5b6000610b7f85828601610a80565b9250506020610b9085828601610a95565b9150509250929050565b610ba38161107b565b82525050565b6000610bb482610ff7565b610bbe8185611002565b9350610bce8185602086016110be565b610bd781611181565b840191505092915050565b6000610bef602383611002565b91507f45524332303a207472616e7366657220746f20746865207a65726f206164647260008301527f65737300000000000000000000000000000000000000000000000000000000006020830152604082019050919050565b6000610c55602283611002565b91507f45524332303a20617070726f766520746f20746865207a65726f20616464726560008301527f73730000000000000000000000000000000000000000000000000000000000006020830152604082019050919050565b6000610cbb601d83611002565b91507f45524332303a20696e73756666696369656e7420616c6c6f77616e63650000006000830152602082019050919050565b6000610cfb602683611002565b91507f45524332303a207472616e7366657220616d6f756e742065786365656473206260008301527f616c616e636500000000000000000000000000000000000000000000000000006020830152604082019050919050565b6000610d61602583611002565b91507f45524332303a207472616e736665722066726f6d20746865207a65726f20616460008301527f64726573730000000000000000000000000000000000000000000000000000006020830152604082019050919050565b6000610dc7602483611002565b91507f45524332303a20617070726f76652066726f6d20746865207a65726f2061646460008301527f72657373000000000000000000000000000000000000000000000000000000006020830152604082019050919050565b6000610e2d602583611002565b91507f45524332303a2064656372656173656420616c6c6f77616e63652062656c6f7760008301527f207a65726f0000000000000000000000000000000000000000000000000000006020830152604082019050919050565b610e8f816110a7565b82525050565b610e9e816110b1565b82525050565b6000602082019050610eb96000830184610b9a565b92915050565b60006020820190508181036000830152610ed98184610ba9565b905092915050565b60006020820190508181036000830152610efa81610be2565b9050919050565b60006020820190508181036000830152610f1a81610c48565b9050919050565b60006020820190508181036000830152610f3a81610cae565b9050919050565b60006020820190508181036000830152610f5a81610cee565b9050919050565b60006020820190508181036000830152610f7a81610d54565b9050919050565b60006020820190508181036000830152610f9a81610dba565b9050919050565b60006020820190508181036000830152610fba81610e20565b9050919050565b6000602082019050610fd66000830184610e86565b92915050565b6000602082019050610ff16000830184610e95565b92915050565b600081519050919050565b600082825260208201905092915050565b600061101e826110a7565b9150611029836110a7565b9250827fffffffffffffffffffffffffffffffffffffffffffffffffffffffffffffffff0382111561105e5761105d611123565b5b828201905092915050565b600061107482611087565b9050919050565b60008115159050919050565b600073ffffffffffffffffffffffffffffffffffffffff82169050919050565b6000819050919050565b600060ff82169050919050565b60005b838110156110dc5780820151818401526020810190506110c1565b838111156110eb576000848401525b50505050565b6000600282049050600182168061110957607f821691505b6020821081141561111d5761111c611152565b5b50919050565b7f4e487b7100000000000000000000000000000000000000000000000000000000600052601160045260246000fd5b7f4e487b7100000000000000000000000000000000000000000000000000000000600052602260045260246000fd5b6000601f19601f8301169050919050565b61119b81611069565b81146111a657600080fd5b50565b6111b2816110a7565b81146111bd57600080fd5b5056fea2646970667358221220f9a5bc9ca48fff3caa0d2c9d11e5318cf983ea37f9273a1c277c6d159a64ccc964736f6c63430008000033",
  "linkReferences": {},
  "deployedLinkReferences": {}
}