{
  "_format": "hh-sol-artifact-1",
  "contractName": "CustomDex",
  "sourceName": "contracts/CustomEx.sol",
  "abi": [
    {
      "inputs": [],
      "stateMutability": "nonpayable",
      "type": "constructor"
    },
    {
      "inputs": [],
      "name": "_historyIndex",
      "outputs": [
        {
          "internalType": "uint256",
          "name": "",
          "type": "uint256"
        }
      ],
      "stateMutability": "view",
      "type": "function"
    },
    {
      "inputs": [],
      "name": "getAllHistory",
      "outputs": [
        {
          "components": [
            {
              "internalType": "uint256",
              "name": "historyId",
              "type": "uint256"
            },
            {
              "internalType": "string",
              "name": "tokenA",
              "type": "string"
            },
            {
              "internalType": "string",
              "name": "tokenB",
              "type": "string"
            },
            {
              "internalType": "uint256",
              "name": "inputValue",
              "type": "uint256"
            },
            {
              "internalType": "uint256",
              "name": "outputValue",
              "type": "uint256"
            },
            {
              "internalType": "address",
              "name": "userAddress",
              "type": "address"
            }
          ],
          "internalType": "struct CustomDex.History[]",
          "name": "",
          "type": "tuple[]"
        }
      ],
      "stateMutability": "view",
      "type": "function"
    },
    {
      "inputs": [
        {
          "internalType": "string",
          "name": "tokenName",
          "type": "string"
        },
        {
          "internalType": "address",
          "name": "_address",
          "type": "address"
        }
      ],
      "name": "getBalance",
      "outputs": [
        {
          "internalType": "uint256",
          "name": "",
          "type": "uint256"
        }
      ],
      "stateMutability": "view",
      "type": "function"
    },
    {
      "inputs": [],
      "name": "getEtherBalance",
      "outputs": [
        {
          "internalType": "uint256",
          "name": "",
          "type": "uint256"
        }
      ],
      "stateMutability": "view",
      "type": "function"
    },
    {
      "inputs": [
        {
          "internalType": "string",
          "name": "tokenName",
          "type": "string"
        }
      ],
      "name": "getName",
      "outputs": [
        {
          "internalType": "string",
          "name": "",
          "type": "string"
        }
      ],
      "stateMutability": "view",
      "type": "function"
    },
    {
      "inputs": [
        {
          "internalType": "string",
          "name": "tokenName",
          "type": "string"
        }
      ],
      "name": "getTokenAddress",
      "outputs": [
        {
          "internalType": "address",
          "name": "",
          "type": "address"
        }
      ],
      "stateMutability": "view",
      "type": "function"
    },
    {
      "inputs": [
        {
          "internalType": "string",
          "name": "tokenName",
          "type": "string"
        }
      ],
      "name": "getTotalSupply",
      "outputs": [
        {
          "internalType": "uint256",
          "name": "",
          "type": "uint256"
        }
      ],
      "stateMutability": "view",
      "type": "function"
    },
    {
      "inputs": [
        {
          "internalType": "string",
          "name": "tokenName",
          "type": "string"
        }
      ],
      "name": "swapEthToToken",
      "outputs": [
        {
          "internalType": "uint256",
          "name": "",
          "type": "uint256"
        }
      ],
      "stateMutability": "payable",
      "type": "function"
    },
    {
      "inputs": [
        {
          "internalType": "string",
          "name": "tokenName",
          "type": "string"
        },
        {
          "internalType": "uint256",
          "name": "_amount",
          "type": "uint256"
        }
      ],
      "name": "swapTokenToEth",
      "outputs": [
        {
          "internalType": "uint256",
          "name": "",
          "type": "uint256"
        }
      ],
      "stateMutability": "nonpayable",
      "type": "function"
    },
    {
      "inputs": [
        {
          "internalType": "string",
          "name": "srcTokenName",
          "type": "string"
        },
        {
          "internalType": "string",
          "name": "destTokenName",
          "type": "string"
        },
        {
          "internalType": "uint256",
          "name": "_amount",
          "type": "uint256"
        }
      ],
      "name": "swapTokenToToken",
      "outputs": [],
      "stateMutability": "nonpayable",
      "type": "function"
    },
    {
      "inputs": [
        {
          "internalType": "string",
          "name": "",
          "type": "string"
        }
      ],
      "name": "tokenInstanceMap",
      "outputs": [
        {
          "internalType": "contract ERC20",
          "name": "",
          "type": "address"
        }
      ],
      "stateMutability": "view",
      "type": "function"
    },
    {
      "inputs": [
        {
          "internalType": "uint256",
          "name": "",
          "type": "uint256"
        }
      ],
      "name": "tokens",
      "outputs": [
        {
          "internalType": "string",
          "name": "",
          "type": "string"
        }
      ],
      "stateMutability": "view",
      "type": "function"
    }
  ],
  "bytecode": "0x60806040526040518061010001604052806040518060400160405280600a81526020017f546574686572205553440000000000000000000000000000000000000000000081525081526020016040518060400160405280600381526020017f424e42000000000000000000000000000000000000000000000000000000000081525081526020016040518060400160405280600881526020017f55534420436f696e00000000000000000000000000000000000000000000000081525081526020016040518060400160405280600581526020017f737445544800000000000000000000000000000000000000000000000000000081525081526020016040518060400160405280600481526020017f54524f4e0000000000000000000000000000000000000000000000000000000081525081526020016040518060400160405280600b81526020017f4d6174696320546f6b656e00000000000000000000000000000000000000000081525081526020016040518060400160405280600981526020017f534849424120494e55000000000000000000000000000000000000000000000081525081526020016040518060400160405280600781526020017f556e6973776170000000000000000000000000000000000000000000000000008152508152506000906008620001f89291906200039f565b503480156200020657600080fd5b5060005b6000805490508110156200039857600080828154811062000254577f4e487b7100000000000000000000000000000000000000000000000000000000600052603260045260246000fd5b906000526020600020016000838154811062000299577f4e487b7100000000000000000000000000000000000000000000000000000000600052603260045260246000fd5b90600052602060002001604051620002b19062000406565b620002be92919062000662565b604051809103906000f080158015620002db573d6000803e3d6000fd5b509050806001600084815481106200031c577f4e487b7100000000000000000000000000000000000000000000000000000000600052603260045260246000fd5b9060005260206000200160405162000335919062000649565b908152602001604051809103902060006101000a81548173ffffffffffffffffffffffffffffffffffffffff021916908373ffffffffffffffffffffffffffffffffffffffff1602179055505080806200038f906200070e565b9150506200020a565b50620007ba565b828054828255906000526020600020908101928215620003f3579160200282015b82811115620003f2578251829080519060200190620003e192919062000414565b5091602001919060010190620003c0565b5b509050620004029190620004a5565b5090565b611823806200273c83390190565b8280546200042290620006d8565b90600052602060002090601f01602090048101928262000446576000855562000492565b82601f106200046157805160ff191683800117855562000492565b8280016001018555821562000492579182015b828111156200049157825182559160200191906001019062000474565b5b509050620004a19190620004cd565b5090565b5b80821115620004c95760008181620004bf9190620004ec565b50600101620004a6565b5090565b5b80821115620004e8576000816000905550600101620004ce565b5090565b508054620004fa90620006d8565b6000825580601f106200050e57506200052f565b601f0160209004906000526020600020908101906200052e9190620004cd565b5b50565b600081546200054181620006d8565b6200054d8186620006b2565b945060018216600081146200056b57600181146200057e57620005b5565b60ff1983168652602086019350620005b5565b62000589856200069d565b60005b83811015620005ad578154818901526001820191506020810190506200058c565b808801955050505b50505092915050565b60008154620005cd81620006d8565b620005d98186620006c3565b94506001821660008114620005f75760018114620006095762000640565b60ff1983168652818601935062000640565b62000614856200069d565b60005b83811015620006385781548189015260018201915060208101905062000617565b838801955050505b50505092915050565b6000620006578284620005be565b915081905092915050565b600060408201905081810360008301526200067e818562000532565b9050818103602083015262000694818462000532565b90509392505050565b60008190508160005260206000209050919050565b600082825260208201905092915050565b600081905092915050565b6000819050919050565b60006002820490506001821680620006f157607f821691505b602082108114156200070857620007076200078b565b5b50919050565b60006200071b82620006ce565b91507fffffffffffffffffffffffffffffffffffffffffffffffffffffffffffffffff8214156200075157620007506200075c565b5b600182019050919050565b7f4e487b7100000000000000000000000000000000000000000000000000000000600052601160045260246000fd5b7f4e487b7100000000000000000000000000000000000000000000000000000000600052602260045260246000fd5b611f7280620007ca6000396000f3fe6080604052600436106100a75760003560e01c806389f4b3171161006457806389f4b317146101e9578063a93325ed14610226578063bf015aae14610263578063c40912361461028c578063db6f63ee146102c9578063ea46193e14610306576100a7565b806319b3c12d146100ac57806339c5891a146100d75780634f64b2be146101025780635463109e1461013f57806363fcf7c51461017c5780636932cf81146101ac575b600080fd5b3480156100b857600080fd5b506100c1610331565b6040516100ce9190611991565b60405180910390f35b3480156100e357600080fd5b506100ec610337565b6040516100f991906118d2565b60405180910390f35b34801561010e57600080fd5b50610129600480360381019061012491906114fe565b6105f1565b604051610136919061190f565b60405180910390f35b34801561014b57600080fd5b5061016660048036038101906101619190611355565b61069d565b6040516101739190611991565b60405180910390f35b61019660048036038101906101919190611355565b610762565b6040516101a39190611991565b60405180910390f35b3480156101b857600080fd5b506101d360048036038101906101ce9190611355565b61092f565b6040516101e0919061190f565b60405180910390f35b3480156101f557600080fd5b50610210600480360381019061020b91906113d7565b6109f9565b60405161021d9190611991565b60405180910390f35b34801561023257600080fd5b5061024d60048036038101906102489190611355565b610aca565b60405161025a91906118f4565b60405180910390f35b34801561026f57600080fd5b5061028a6004803603810190610285919061142b565b610b13565b005b34801561029857600080fd5b506102b360048036038101906102ae9190611355565b610d46565b6040516102c09190611857565b60405180910390f35b3480156102d557600080fd5b506102f060048036038101906102eb91906114aa565b610d8e565b6040516102fd9190611991565b60405180910390f35b34801561031257600080fd5b5061031b61102e565b6040516103289190611991565b60405180910390f35b60025481565b60606000600254905060008167ffffffffffffffff811115610382577f4e487b7100000000000000000000000000000000000000000000000000000000600052604160045260246000fd5b6040519080825280602002602001820160405280156103bb57816020015b6103a8611104565b8152602001906001900390816103a05790505b50905060005b828110156105e85760006001826103d89190611a7e565b9050600360008281526020019081526020016000206040518060c00160405290816000820154815260200160018201805461041290611d8b565b80601f016020809104026020016040519081016040528092919081815260200182805461043e90611d8b565b801561048b5780601f106104605761010080835404028352916020019161048b565b820191906000526020600020905b81548152906001019060200180831161046e57829003601f168201915b505050505081526020016002820180546104a490611d8b565b80601f01602080910402602001604051908101604052809291908181526020018280546104d090611d8b565b801561051d5780601f106104f25761010080835404028352916020019161051d565b820191906000526020600020905b81548152906001019060200180831161050057829003601f168201915b5050505050815260200160038201548152602001600482015481526020016005820160009054906101000a900473ffffffffffffffffffffffffffffffffffffffff1673ffffffffffffffffffffffffffffffffffffffff1673ffffffffffffffffffffffffffffffffffffffff16815250508383815181106105c9577f4e487b7100000000000000000000000000000000000000000000000000000000600052603260045260246000fd5b60200260200101819052505080806105e090611dbd565b9150506103c1565b50809250505090565b6000818154811061060157600080fd5b90600052602060002001600091509050805461061c90611d8b565b80601f016020809104026020016040519081016040528092919081815260200182805461064890611d8b565b80156106955780601f1061066a57610100808354040283529160200191610695565b820191906000526020600020905b81548152906001019060200180831161067857829003601f168201915b505050505081565b60006001826040516106af9190611840565b908152602001604051809103902060009054906101000a900473ffffffffffffffffffffffffffffffffffffffff1673ffffffffffffffffffffffffffffffffffffffff166318160ddd6040518163ffffffff1660e01b815260040160206040518083038186803b15801561072357600080fd5b505afa158015610737573d6000803e3d6000fd5b505050506040513d601f19601f8201168201806040525081019061075b9190611527565b9050919050565b6000803490506000670de0b6b3a7640000808361077f9190611ad4565b6107899190611c76565b9050600081116107ce576040517f08c379a00000000000000000000000000000000000000000000000000000000081526004016107c590611971565b60405180910390fd5b60006001856040516107e09190611840565b908152602001604051809103902060009054906101000a900473ffffffffffffffffffffffffffffffffffffffff1690508073ffffffffffffffffffffffffffffffffffffffff1663a9059cbb33846040518363ffffffff1660e01b815260040161084c9291906118a9565b602060405180830381600087803b15801561086657600080fd5b505af115801561087a573d6000803e3d6000fd5b505050506040513d601f19601f8201168201806040525081019061089e919061132c565b6108dd576040517f08c379a00000000000000000000000000000000000000000000000000000000081526004016108d490611931565b60405180910390fd5b60006040518060400160405280600581526020017f4574686572000000000000000000000000000000000000000000000000000000815250905061092386828686611036565b82945050505050919050565b60606001826040516109419190611840565b908152602001604051809103902060009054906101000a900473ffffffffffffffffffffffffffffffffffffffff1673ffffffffffffffffffffffffffffffffffffffff166306fdde036040518163ffffffff1660e01b815260040160006040518083038186803b1580156109b557600080fd5b505afa1580156109c9573d6000803e3d6000fd5b505050506040513d6000823e3d601f19601f820116820180604052508101906109f29190611396565b9050919050565b6000600183604051610a0b9190611840565b908152602001604051809103902060009054906101000a900473ffffffffffffffffffffffffffffffffffffffff1673ffffffffffffffffffffffffffffffffffffffff166370a08231836040518263ffffffff1660e01b8152600401610a729190611857565b60206040518083038186803b158015610a8a57600080fd5b505afa158015610a9e573d6000803e3d6000fd5b505050506040513d601f19601f82011682018060405250810190610ac29190611527565b905092915050565b6001818051602081018201805184825260208301602085012081835280955050505050506000915054906101000a900473ffffffffffffffffffffffffffffffffffffffff1681565b6000600184604051610b259190611840565b908152602001604051809103902060009054906101000a900473ffffffffffffffffffffffffffffffffffffffff1690506000600184604051610b689190611840565b908152602001604051809103902060009054906101000a900473ffffffffffffffffffffffffffffffffffffffff1690508173ffffffffffffffffffffffffffffffffffffffff166323b872dd3330866040518463ffffffff1660e01b8152600401610bd693929190611872565b602060405180830381600087803b158015610bf057600080fd5b505af1158015610c04573d6000803e3d6000fd5b505050506040513d601f19601f82011682018060405250810190610c28919061132c565b610c67576040517f08c379a0000000000000000000000000000000000000000000000000000000008152600401610c5e90611931565b60405180910390fd5b8073ffffffffffffffffffffffffffffffffffffffff1663a9059cbb33856040518363ffffffff1660e01b8152600401610ca29291906118a9565b602060405180830381600087803b158015610cbc57600080fd5b505af1158015610cd0573d6000803e3d6000fd5b505050506040513d601f19601f82011682018060405250810190610cf4919061132c565b610d33576040517f08c379a0000000000000000000000000000000000000000000000000000000008152600401610d2a90611931565b60405180910390fd5b610d3f85858586611036565b5050505050565b6000600182604051610d589190611840565b908152602001604051809103902060009054906101000a900473ffffffffffffffffffffffffffffffffffffffff169050919050565b600080600184604051610da19190611840565b908152602001604051809103902060009054906101000a900473ffffffffffffffffffffffffffffffffffffffff16905060008173ffffffffffffffffffffffffffffffffffffffff1663313ce5676040518163ffffffff1660e01b815260040160206040518083038186803b158015610e1a57600080fd5b505afa158015610e2e573d6000803e3d6000fd5b505050506040513d601f19601f82011682018060405250810190610e529190611550565b600a610e5e9190611b58565b84610e699190611ad4565b90506000670de0b6b3a764000082610e819190611c76565b905080471015610ec6576040517f08c379a0000000000000000000000000000000000000000000000000000000008152600401610ebd90611951565b60405180910390fd5b3373ffffffffffffffffffffffffffffffffffffffff166108fc829081150290604051600060405180830381858888f19350505050158015610f0c573d6000803e3d6000fd5b508273ffffffffffffffffffffffffffffffffffffffff166323b872dd3330886040518463ffffffff1660e01b8152600401610f4a93929190611872565b602060405180830381600087803b158015610f6457600080fd5b505af1158015610f78573d6000803e3d6000fd5b505050506040513d601f19601f82011682018060405250810190610f9c919061132c565b610fdb576040517f08c379a0000000000000000000000000000000000000000000000000000000008152600401610fd290611931565b60405180910390fd5b60006040518060400160405280600581526020017f4574686572000000000000000000000000000000000000000000000000000000815250905061102187828585611036565b8194505050505092915050565b600047905090565b6002600081548092919061104990611dbd565b9190505550600060025490506000600360008381526020019081526020016000209050818160000181905550338160050160006101000a81548173ffffffffffffffffffffffffffffffffffffffff021916908373ffffffffffffffffffffffffffffffffffffffff160217905550858160010190805190602001906110d0929190611150565b50848160020190805190602001906110e9929190611150565b50838160030181905550828160040181905550505050505050565b6040518060c001604052806000815260200160608152602001606081526020016000815260200160008152602001600073ffffffffffffffffffffffffffffffffffffffff1681525090565b82805461115c90611d8b565b90600052602060002090601f01602090048101928261117e57600085556111c5565b82601f1061119757805160ff19168380011785556111c5565b828001600101855582156111c5579182015b828111156111c45782518255916020019190600101906111a9565b5b5090506111d291906111d6565b5090565b5b808211156111ef5760008160009055506001016111d7565b5090565b6000611206611201846119dd565b6119ac565b90508281526020810184848401111561121e57600080fd5b611229848285611d49565b509392505050565b600061124461123f846119dd565b6119ac565b90508281526020810184848401111561125c57600080fd5b611267848285611d58565b509392505050565b60008135905061127e81611ee0565b92915050565b60008151905061129381611ef7565b92915050565b600082601f8301126112aa57600080fd5b81356112ba8482602086016111f3565b91505092915050565b600082601f8301126112d457600080fd5b81516112e4848260208601611231565b91505092915050565b6000813590506112fc81611f0e565b92915050565b60008151905061131181611f0e565b92915050565b60008151905061132681611f25565b92915050565b60006020828403121561133e57600080fd5b600061134c84828501611284565b91505092915050565b60006020828403121561136757600080fd5b600082013567ffffffffffffffff81111561138157600080fd5b61138d84828501611299565b91505092915050565b6000602082840312156113a857600080fd5b600082015167ffffffffffffffff8111156113c257600080fd5b6113ce848285016112c3565b91505092915050565b600080604083850312156113ea57600080fd5b600083013567ffffffffffffffff81111561140457600080fd5b61141085828601611299565b92505060206114218582860161126f565b9150509250929050565b60008060006060848603121561144057600080fd5b600084013567ffffffffffffffff81111561145a57600080fd5b61146686828701611299565b935050602084013567ffffffffffffffff81111561148357600080fd5b61148f86828701611299565b92505060406114a0868287016112ed565b9150509250925092565b600080604083850312156114bd57600080fd5b600083013567ffffffffffffffff8111156114d757600080fd5b6114e385828601611299565b92505060206114f4858286016112ed565b9150509250929050565b60006020828403121561151057600080fd5b600061151e848285016112ed565b91505092915050565b60006020828403121561153957600080fd5b600061154784828501611302565b91505092915050565b60006020828403121561156257600080fd5b600061157084828501611317565b91505092915050565b60006115858383611792565b905092915050565b61159681611cd0565b82525050565b6115a581611cd0565b82525050565b60006115b682611a1d565b6115c08185611a40565b9350836020820285016115d285611a0d565b8060005b8581101561160e57848403895281516115ef8582611579565b94506115fa83611a33565b925060208a019950506001810190506115d6565b50829750879550505050505092915050565b61162981611d25565b82525050565b600061163a82611a28565b6116448185611a51565b9350611654818560208601611d58565b61165d81611ec2565b840191505092915050565b600061167382611a28565b61167d8185611a62565b935061168d818560208601611d58565b61169681611ec2565b840191505092915050565b60006116ac82611a28565b6116b68185611a73565b93506116c6818560208601611d58565b80840191505092915050565b60006116df600f83611a62565b91507f5472616e73666572206661696c656400000000000000000000000000000000006000830152602082019050919050565b600061171f601d83611a62565b91507f4465782069732072756e6e696e67206c6f77206f6e2062616c616e63650000006000830152602082019050919050565b600061175f601983611a62565b91507f496e73756666696369656e74204554482070726f7669646564000000000000006000830152602082019050919050565b600060c0830160008301516117aa6000860182611822565b50602083015184820360208601526117c2828261162f565b915050604083015184820360408601526117dc828261162f565b91505060608301516117f16060860182611822565b5060808301516118046080860182611822565b5060a083015161181760a086018261158d565b508091505092915050565b61182b81611d0e565b82525050565b61183a81611d0e565b82525050565b600061184c82846116a1565b915081905092915050565b600060208201905061186c600083018461159c565b92915050565b6000606082019050611887600083018661159c565b611894602083018561159c565b6118a16040830184611831565b949350505050565b60006040820190506118be600083018561159c565b6118cb6020830184611831565b9392505050565b600060208201905081810360008301526118ec81846115ab565b905092915050565b60006020820190506119096000830184611620565b92915050565b600060208201905081810360008301526119298184611668565b905092915050565b6000602082019050818103600083015261194a816116d2565b9050919050565b6000602082019050818103600083015261196a81611712565b9050919050565b6000602082019050818103600083015261198a81611752565b9050919050565b60006020820190506119a66000830184611831565b92915050565b6000604051905081810181811067ffffffffffffffff821117156119d3576119d2611e93565b5b8060405250919050565b600067ffffffffffffffff8211156119f8576119f7611e93565b5b601f19601f8301169050602081019050919050565b6000819050602082019050919050565b600081519050919050565b600081519050919050565b6000602082019050919050565b600082825260208201905092915050565b600082825260208201905092915050565b600082825260208201905092915050565b600081905092915050565b6000611a8982611d0e565b9150611a9483611d0e565b9250827fffffffffffffffffffffffffffffffffffffffffffffffffffffffffffffffff03821115611ac957611ac8611e06565b5b828201905092915050565b6000611adf82611d0e565b9150611aea83611d0e565b925082611afa57611af9611e35565b5b828204905092915050565b6000808291508390505b6001851115611b4f57808604811115611b2b57611b2a611e06565b5b6001851615611b3a5780820291505b8081029050611b4885611ed3565b9450611b0f565b94509492505050565b6000611b6382611d0e565b9150611b6e83611d18565b9250611b9b7fffffffffffffffffffffffffffffffffffffffffffffffffffffffffffffffff8484611ba3565b905092915050565b600082611bb35760019050611c6f565b81611bc15760009050611c6f565b8160018114611bd75760028114611be157611c10565b6001915050611c6f565b60ff841115611bf357611bf2611e06565b5b8360020a915084821115611c0a57611c09611e06565b5b50611c6f565b5060208310610133831016604e8410600b8410161715611c455782820a905083811115611c4057611c3f611e06565b5b611c6f565b611c528484846001611b05565b92509050818404811115611c6957611c68611e06565b5b81810290505b9392505050565b6000611c8182611d0e565b9150611c8c83611d0e565b9250817fffffffffffffffffffffffffffffffffffffffffffffffffffffffffffffffff0483118215151615611cc557611cc4611e06565b5b828202905092915050565b6000611cdb82611cee565b9050919050565b60008115159050919050565b600073ffffffffffffffffffffffffffffffffffffffff82169050919050565b6000819050919050565b600060ff82169050919050565b6000611d3082611d37565b9050919050565b6000611d4282611cee565b9050919050565b82818337600083830152505050565b60005b83811015611d76578082015181840152602081019050611d5b565b83811115611d85576000848401525b50505050565b60006002820490506001821680611da357607f821691505b60208210811415611db757611db6611e64565b5b50919050565b6000611dc882611d0e565b91507fffffffffffffffffffffffffffffffffffffffffffffffffffffffffffffffff821415611dfb57611dfa611e06565b5b600182019050919050565b7f4e487b7100000000000000000000000000000000000000000000000000000000600052601160045260246000fd5b7f4e487b7100000000000000000000000000000000000000000000000000000000600052601260045260246000fd5b7f4e487b7100000000000000000000000000000000000000000000000000000000600052602260045260246000fd5b7f4e487b7100000000000000000000000000000000000000000000000000000000600052604160045260246000fd5b6000601f19601f8301169050919050565b60008160011c9050919050565b611ee981611cd0565b8114611ef457600080fd5b50565b611f0081611ce2565b8114611f0b57600080fd5b50565b611f1781611d0e565b8114611f2257600080fd5b50565b611f2e81611d18565b8114611f3957600080fd5b5056fea26469706673582212205b7beae8c46f1f734c42e0534e1dde1a18d0adde450da3bade46aa2eb01fe50264736f6c6343000800003360806040523480156200001157600080fd5b506040516200182338038062001823833981810160405281019062000037919062000337565b818181600390805190602001906200005192919062000215565b5080600490805190602001906200006a92919062000215565b5050506200008a336a084595161401484a0000006200009260201b60201c565b505062000614565b600073ffffffffffffffffffffffffffffffffffffffff168273ffffffffffffffffffffffffffffffffffffffff16141562000105576040517f08c379a0000000000000000000000000000000000000000000000000000000008152600401620000fc90620003fd565b60405180910390fd5b62000119600083836200020b60201b60201c565b80600260008282546200012d9190620004b4565b92505081905550806000808473ffffffffffffffffffffffffffffffffffffffff1673ffffffffffffffffffffffffffffffffffffffff1681526020019081526020016000206000828254620001849190620004b4565b925050819055508173ffffffffffffffffffffffffffffffffffffffff16600073ffffffffffffffffffffffffffffffffffffffff167fddf252ad1be2c89b69c2b068fc378daa952ba7f163c4a11628f55a4df523b3ef83604051620001eb91906200041f565b60405180910390a362000207600083836200021060201b60201c565b5050565b505050565b505050565b828054620002239062000551565b90600052602060002090601f01602090048101928262000247576000855562000293565b82601f106200026257805160ff191683800117855562000293565b8280016001018555821562000293579182015b828111156200029257825182559160200191906001019062000275565b5b509050620002a29190620002a6565b5090565b5b80821115620002c1576000816000905550600101620002a7565b5090565b6000620002dc620002d68462000470565b6200043c565b905082815260208101848484011115620002f557600080fd5b620003028482856200051b565b509392505050565b600082601f8301126200031c57600080fd5b81516200032e848260208601620002c5565b91505092915050565b600080604083850312156200034b57600080fd5b600083015167ffffffffffffffff8111156200036657600080fd5b62000374858286016200030a565b925050602083015167ffffffffffffffff8111156200039257600080fd5b620003a0858286016200030a565b9150509250929050565b6000620003b9601f83620004a3565b91507f45524332303a206d696e7420746f20746865207a65726f2061646472657373006000830152602082019050919050565b620003f78162000511565b82525050565b600060208201905081810360008301526200041881620003aa565b9050919050565b6000602082019050620004366000830184620003ec565b92915050565b6000604051905081810181811067ffffffffffffffff82111715620004665762000465620005e5565b5b8060405250919050565b600067ffffffffffffffff8211156200048e576200048d620005e5565b5b601f19601f8301169050602081019050919050565b600082825260208201905092915050565b6000620004c18262000511565b9150620004ce8362000511565b9250827fffffffffffffffffffffffffffffffffffffffffffffffffffffffffffffffff0382111562000506576200050562000587565b5b828201905092915050565b6000819050919050565b60005b838110156200053b5780820151818401526020810190506200051e565b838111156200054b576000848401525b50505050565b600060028204905060018216806200056a57607f821691505b60208210811415620005815762000580620005b6565b5b50919050565b7f4e487b7100000000000000000000000000000000000000000000000000000000600052601160045260246000fd5b7f4e487b7100000000000000000000000000000000000000000000000000000000600052602260045260246000fd5b7f4e487b7100000000000000000000000000000000000000000000000000000000600052604160045260246000fd5b6111ff80620006246000396000f3fe608060405234801561001057600080fd5b50600436106100a95760003560e01c80633950935111610071578063395093511461016857806370a082311461019857806395d89b41146101c8578063a457c2d7146101e6578063a9059cbb14610216578063dd62ed3e14610246576100a9565b806306fdde03146100ae578063095ea7b3146100cc57806318160ddd146100fc57806323b872dd1461011a578063313ce5671461014a575b600080fd5b6100b6610276565b6040516100c39190610ec8565b60405180910390f35b6100e660048036038101906100e19190610b67565b610308565b6040516100f39190610ead565b60405180910390f35b61010461032b565b6040516101119190610fca565b60405180910390f35b610134600480360381019061012f9190610b18565b610335565b6040516101419190610ead565b60405180910390f35b610152610364565b60405161015f9190610fe5565b60405180910390f35b610182600480360381019061017d9190610b67565b61036d565b60405161018f9190610ead565b60405180910390f35b6101b260048036038101906101ad9190610ab3565b6103a4565b6040516101bf9190610fca565b60405180910390f35b6101d06103ec565b6040516101dd9190610ec8565b60405180910390f35b61020060048036038101906101fb9190610b67565b61047e565b60405161020d9190610ead565b60405180910390f35b610230600480360381019061022b9190610b67565b6104f5565b60405161023d9190610ead565b60405180910390f35b610260600480360381019061025b9190610adc565b610518565b60405161026d9190610fca565b60405180910390f35b606060038054610285906110fa565b80601f01602080910402602001604051908101604052809291908181526020018280546102b1906110fa565b80156102fe5780601f106102d3576101008083540402835291602001916102fe565b820191906000526020600020905b8154815290600101906020018083116102e157829003601f168201915b5050505050905090565b60008061031361059f565b90506103208185856105a7565b600191505092915050565b6000600254905090565b60008061034061059f565b905061034d858285610772565b6103588585856107fe565b60019150509392505050565b60006012905090565b60008061037861059f565b905061039981858561038a8589610518565b610394919061101c565b6105a7565b600191505092915050565b60008060008373ffffffffffffffffffffffffffffffffffffffff1673ffffffffffffffffffffffffffffffffffffffff168152602001908152602001600020549050919050565b6060600480546103fb906110fa565b80601f0160208091040260200160405190810160405280929190818152602001828054610427906110fa565b80156104745780601f1061044957610100808354040283529160200191610474565b820191906000526020600020905b81548152906001019060200180831161045757829003601f168201915b5050505050905090565b60008061048961059f565b905060006104978286610518565b9050838110156104dc576040517f08c379a00000000000000000000000000000000000000000000000000000000081526004016104d390610faa565b60405180910390fd5b6104e982868684036105a7565b60019250505092915050565b60008061050061059f565b905061050d8185856107fe565b600191505092915050565b6000600160008473ffffffffffffffffffffffffffffffffffffffff1673ffffffffffffffffffffffffffffffffffffffff16815260200190815260200160002060008373ffffffffffffffffffffffffffffffffffffffff1673ffffffffffffffffffffffffffffffffffffffff16815260200190815260200160002054905092915050565b600033905090565b600073ffffffffffffffffffffffffffffffffffffffff168373ffffffffffffffffffffffffffffffffffffffff161415610617576040517f08c379a000000000000000000000000000000000000000000000000000000000815260040161060e90610f8a565b60405180910390fd5b600073ffffffffffffffffffffffffffffffffffffffff168273ffffffffffffffffffffffffffffffffffffffff161415610687576040517f08c379a000000000000000000000000000000000000000000000000000000000815260040161067e90610f0a565b60405180910390fd5b80600160008573ffffffffffffffffffffffffffffffffffffffff1673ffffffffffffffffffffffffffffffffffffffff16815260200190815260200160002060008473ffffffffffffffffffffffffffffffffffffffff1673ffffffffffffffffffffffffffffffffffffffff168152602001908152602001600020819055508173ffffffffffffffffffffffffffffffffffffffff168373ffffffffffffffffffffffffffffffffffffffff167f8c5be1e5ebec7d5bd14f71427d1e84f3dd0314c0f7b2291e5b200ac8c7c3b925836040516107659190610fca565b60405180910390a3505050565b600061077e8484610518565b90507fffffffffffffffffffffffffffffffffffffffffffffffffffffffffffffffff81146107f857818110156107ea576040517f08c379a00000000000000000000000000000000000000000000000000000000081526004016107e190610f2a565b60405180910390fd5b6107f784848484036105a7565b5b50505050565b600073ffffffffffffffffffffffffffffffffffffffff168373ffffffffffffffffffffffffffffffffffffffff16141561086e576040517f08c379a000000000000000000000000000000000000000000000000000000000815260040161086590610f6a565b60405180910390fd5b600073ffffffffffffffffffffffffffffffffffffffff168273ffffffffffffffffffffffffffffffffffffffff1614156108de576040517f08c379a00000000000000000000000000000000000000000000000000000000081526004016108d590610eea565b60405180910390fd5b6108e9838383610a7f565b60008060008573ffffffffffffffffffffffffffffffffffffffff1673ffffffffffffffffffffffffffffffffffffffff1681526020019081526020016000205490508181101561096f576040517f08c379a000000000000000000000000000000000000000000000000000000000815260040161096690610f4a565b60405180910390fd5b8181036000808673ffffffffffffffffffffffffffffffffffffffff1673ffffffffffffffffffffffffffffffffffffffff16815260200190815260200160002081905550816000808573ffffffffffffffffffffffffffffffffffffffff1673ffffffffffffffffffffffffffffffffffffffff1681526020019081526020016000206000828254610a02919061101c565b925050819055508273ffffffffffffffffffffffffffffffffffffffff168473ffffffffffffffffffffffffffffffffffffffff167fddf252ad1be2c89b69c2b068fc378daa952ba7f163c4a11628f55a4df523b3ef84604051610a669190610fca565b60405180910390a3610a79848484610a84565b50505050565b505050565b505050565b600081359050610a988161119b565b92915050565b600081359050610aad816111b2565b92915050565b600060208284031215610ac557600080fd5b6000610ad384828501610a89565b91505092915050565b60008060408385031215610aef57600080fd5b6000610afd85828601610a89565b9250506020610b0e85828601610a89565b9150509250929050565b600080600060608486031215610b2d57600080fd5b6000610b3b86828701610a89565b9350506020610b4c86828701610a89565b9250506040610b5d86828701610a9e565b9150509250925092565b60008060408385031215610b7a57600080fd5b6000610b8885828601610a89565b9250506020610b9985828601610a9e565b9150509250929050565b610bac81611084565b82525050565b6000610bbd82611000565b610bc7818561100b565b9350610bd78185602086016110c7565b610be08161118a565b840191505092915050565b6000610bf860238361100b565b91507f45524332303a207472616e7366657220746f20746865207a65726f206164647260008301527f65737300000000000000000000000000000000000000000000000000000000006020830152604082019050919050565b6000610c5e60228361100b565b91507f45524332303a20617070726f766520746f20746865207a65726f20616464726560008301527f73730000000000000000000000000000000000000000000000000000000000006020830152604082019050919050565b6000610cc4601d8361100b565b91507f45524332303a20696e73756666696369656e7420616c6c6f77616e63650000006000830152602082019050919050565b6000610d0460268361100b565b91507f45524332303a207472616e7366657220616d6f756e742065786365656473206260008301527f616c616e636500000000000000000000000000000000000000000000000000006020830152604082019050919050565b6000610d6a60258361100b565b91507f45524332303a207472616e736665722066726f6d20746865207a65726f20616460008301527f64726573730000000000000000000000000000000000000000000000000000006020830152604082019050919050565b6000610dd060248361100b565b91507f45524332303a20617070726f76652066726f6d20746865207a65726f2061646460008301527f72657373000000000000000000000000000000000000000000000000000000006020830152604082019050919050565b6000610e3660258361100b565b91507f45524332303a2064656372656173656420616c6c6f77616e63652062656c6f7760008301527f207a65726f0000000000000000000000000000000000000000000000000000006020830152604082019050919050565b610e98816110b0565b82525050565b610ea7816110ba565b82525050565b6000602082019050610ec26000830184610ba3565b92915050565b60006020820190508181036000830152610ee28184610bb2565b905092915050565b60006020820190508181036000830152610f0381610beb565b9050919050565b60006020820190508181036000830152610f2381610c51565b9050919050565b60006020820190508181036000830152610f4381610cb7565b9050919050565b60006020820190508181036000830152610f6381610cf7565b9050919050565b60006020820190508181036000830152610f8381610d5d565b9050919050565b60006020820190508181036000830152610fa381610dc3565b9050919050565b60006020820190508181036000830152610fc381610e29565b9050919050565b6000602082019050610fdf6000830184610e8f565b92915050565b6000602082019050610ffa6000830184610e9e565b92915050565b600081519050919050565b600082825260208201905092915050565b6000611027826110b0565b9150611032836110b0565b9250827fffffffffffffffffffffffffffffffffffffffffffffffffffffffffffffffff038211156110675761106661112c565b5b828201905092915050565b600061107d82611090565b9050919050565b60008115159050919050565b600073ffffffffffffffffffffffffffffffffffffffff82169050919050565b6000819050919050565b600060ff82169050919050565b60005b838110156110e55780820151818401526020810190506110ca565b838111156110f4576000848401525b50505050565b6000600282049050600182168061111257607f821691505b602082108114156111265761112561115b565b5b50919050565b7f4e487b7100000000000000000000000000000000000000000000000000000000600052601160045260246000fd5b7f4e487b7100000000000000000000000000000000000000000000000000000000600052602260045260246000fd5b6000601f19601f8301169050919050565b6111a481611072565b81146111af57600080fd5b50565b6111bb816110b0565b81146111c657600080fd5b5056fea2646970667358221220e8f2091ce9051f1125115203ba2624c05aa20b78a9b3c8ad0d83a47696af182b64736f6c63430008000033",
  "linkReferences": {},
  "deployedLinkReferences": {}
}